{
  "contractName": "BorrowDai",
  "abi": [
    {
      "inputs": [],
      "stateMutability": "nonpayable",
      "type": "constructor"
    },
    {
      "anonymous": false,
      "inputs": [
        {
          "indexed": false,
          "internalType": "uint256",
          "name": "daiEthPrice",
          "type": "uint256"
        },
        {
          "indexed": false,
          "internalType": "uint256",
          "name": "amountDai",
          "type": "uint256"
        },
        {
          "indexed": false,
          "internalType": "uint256",
          "name": "amountEth",
          "type": "uint256"
        },
        {
          "indexed": false,
          "internalType": "address",
          "name": "user",
          "type": "address"
        },
        {
          "indexed": false,
          "internalType": "uint256",
          "name": "timestamp",
          "type": "uint256"
        }
      ],
      "name": "Borrowed",
      "type": "event"
    },
    {
      "inputs": [],
      "name": "IWETH",
      "outputs": [
        {
          "internalType": "contract IWETHGateway",
          "name": "",
          "type": "address"
        }
      ],
      "stateMutability": "view",
      "type": "function",
      "constant": true
    },
    {
      "inputs": [],
      "name": "daiEthPrice",
      "outputs": [
        {
          "internalType": "uint256",
          "name": "",
          "type": "uint256"
        }
      ],
      "stateMutability": "view",
      "type": "function",
      "constant": true
    },
    {
      "inputs": [],
      "name": "lendingPool",
      "outputs": [
        {
          "internalType": "contract ILendingPool",
          "name": "",
          "type": "address"
        }
      ],
      "stateMutability": "view",
      "type": "function",
      "constant": true
    },
    {
      "inputs": [],
      "name": "name",
      "outputs": [
        {
          "internalType": "string",
          "name": "",
          "type": "string"
        }
      ],
      "stateMutability": "view",
      "type": "function",
      "constant": true
    },
    {
      "inputs": [],
      "name": "oracle",
      "outputs": [
        {
          "internalType": "contract IPriceOracle",
          "name": "",
          "type": "address"
        }
      ],
      "stateMutability": "view",
      "type": "function",
      "constant": true
    },
    {
      "inputs": [],
      "name": "provider",
      "outputs": [
        {
          "internalType": "contract ILendingPoolAddressesProvider",
          "name": "",
          "type": "address"
        }
      ],
      "stateMutability": "view",
      "type": "function",
      "constant": true
    },
    {
      "inputs": [
        {
          "internalType": "address",
          "name": "",
          "type": "address"
        }
      ],
      "name": "totalDaiBorrowed",
      "outputs": [
        {
          "internalType": "uint256",
          "name": "",
          "type": "uint256"
        }
      ],
      "stateMutability": "view",
      "type": "function",
      "constant": true
    },
    {
      "inputs": [
        {
          "internalType": "address",
          "name": "",
          "type": "address"
        }
      ],
      "name": "totalEthDeposited",
      "outputs": [
        {
          "internalType": "uint256",
          "name": "",
          "type": "uint256"
        }
      ],
      "stateMutability": "view",
      "type": "function",
      "constant": true
    },
    {
      "stateMutability": "payable",
      "type": "receive",
      "payable": true
    },
    {
      "inputs": [
        {
          "internalType": "uint256",
          "name": "DAIamount",
          "type": "uint256"
        }
      ],
      "name": "borrow",
      "outputs": [],
      "stateMutability": "payable",
      "type": "function",
      "payable": true
    }
  ],
  "bytecode": "0x60806040526040518060400160405280600a81526020017f426f72726f77204461690000000000000000000000000000000000000000000081525060029080519060200190620000519291906200042f565b503480156200005f57600080fd5b5073cc9a0b7c43dc2a5f023bb9b738e45b0ef6b06e04600360006101000a81548173ffffffffffffffffffffffffffffffffffffffff021916908373ffffffffffffffffffffffffffffffffffffffff16021790555073b53c1a33016b2dc2ff3653530bff1848a515c8c5600560006101000a81548173ffffffffffffffffffffffffffffffffffffffff021916908373ffffffffffffffffffffffffffffffffffffffff160217905550600560009054906101000a900473ffffffffffffffffffffffffffffffffffffffff1673ffffffffffffffffffffffffffffffffffffffff16630261bf8b6040518163ffffffff1660e01b815260040160206040518083038186803b1580156200017357600080fd5b505afa15801562000188573d6000803e3d6000fd5b505050506040513d601f19601f82011682018060405250810190620001ae91906200050d565b600860006101000a81548173ffffffffffffffffffffffffffffffffffffffff021916908373ffffffffffffffffffffffffffffffffffffffff160217905550600860009054906101000a900473ffffffffffffffffffffffffffffffffffffffff16600460006101000a81548173ffffffffffffffffffffffffffffffffffffffff021916908373ffffffffffffffffffffffffffffffffffffffff16021790555073a50ba011c48153de246e5192c8f9258a2ba79ca9600660006101000a81548173ffffffffffffffffffffffffffffffffffffffff021916908373ffffffffffffffffffffffffffffffffffffffff16021790555073030ba81f1c18d280636f32af80b9aad02cf0854e600760006101000a81548173ffffffffffffffffffffffffffffffffffffffff021916908373ffffffffffffffffffffffffffffffffffffffff160217905550736b175474e89094c44da98b954eedeac495271d0f600960006101000a81548173ffffffffffffffffffffffffffffffffffffffff021916908373ffffffffffffffffffffffffffffffffffffffff160217905550600660009054906101000a900473ffffffffffffffffffffffffffffffffffffffff1673ffffffffffffffffffffffffffffffffffffffff1663b3596f07600960009054906101000a900473ffffffffffffffffffffffffffffffffffffffff166040518263ffffffff1660e01b8152600401620003cf919062000576565b60206040518083038186803b158015620003e857600080fd5b505afa158015620003fd573d6000803e3d6000fd5b505050506040513d601f19601f8201168201806040525081019062000423919062000539565b600a819055506200066a565b8280546200043d90620005d1565b90600052602060002090601f016020900481019282620004615760008555620004ad565b82601f106200047c57805160ff1916838001178555620004ad565b82800160010185558215620004ad579182015b82811115620004ac5782518255916020019190600101906200048f565b5b509050620004bc9190620004c0565b5090565b5b80821115620004db576000816000905550600101620004c1565b5090565b600081519050620004f08162000636565b92915050565b600081519050620005078162000650565b92915050565b6000602082840312156200052057600080fd5b60006200053084828501620004df565b91505092915050565b6000602082840312156200054c57600080fd5b60006200055c84828501620004f6565b91505092915050565b620005708162000593565b82525050565b60006020820190506200058d600083018462000565565b92915050565b6000620005a082620005a7565b9050919050565b600073ffffffffffffffffffffffffffffffffffffffff82169050919050565b6000819050919050565b60006002820490506001821680620005ea57607f821691505b6020821081141562000601576200060062000607565b5b50919050565b7f4e487b7100000000000000000000000000000000000000000000000000000000600052602260045260246000fd5b620006418162000593565b81146200064d57600080fd5b50565b6200065b81620005c7565b81146200066757600080fd5b50565b610e60806200067a6000396000f3fe60806040526004361061008a5760003560e01c8063a59a997311610059578063a59a997314610142578063ab593a3e1461016d578063c5ebeaec146101aa578063caf9ae68146101c6578063fcb313b51461020357610091565b806306fdde0314610096578063085d4883146100c15780630d015de4146100ec5780637dc0d1d01461011757610091565b3661009157005b600080fd5b3480156100a257600080fd5b506100ab61022e565b6040516100b89190610b29565b60405180910390f35b3480156100cd57600080fd5b506100d66102bc565b6040516100e39190610abd565b60405180910390f35b3480156100f857600080fd5b506101016102e2565b60405161010e9190610b4b565b60405180910390f35b34801561012357600080fd5b5061012c6102e8565b6040516101399190610af3565b60405180910390f35b34801561014e57600080fd5b5061015761030e565b6040516101649190610ad8565b60405180910390f35b34801561017957600080fd5b50610194600480360381019061018f91906108a9565b610334565b6040516101a19190610b4b565b60405180910390f35b6101c460048036038101906101bf91906108fb565b61034c565b005b3480156101d257600080fd5b506101ed60048036038101906101e891906108a9565b610801565b6040516101fa9190610b4b565b60405180910390f35b34801561020f57600080fd5b50610218610819565b6040516102259190610b0e565b60405180910390f35b6002805461023b90610d44565b80601f016020809104026020016040519081016040528092919081815260200182805461026790610d44565b80156102b45780601f10610289576101008083540402835291602001916102b4565b820191906000526020600020905b81548152906001019060200180831161029757829003601f168201915b505050505081565b600560009054906101000a900473ffffffffffffffffffffffffffffffffffffffff1681565b600a5481565b600660009054906101000a900473ffffffffffffffffffffffffffffffffffffffff1681565b600460009054906101000a900473ffffffffffffffffffffffffffffffffffffffff1681565b60006020528060005260406000206000915090505481565b61039d346000803373ffffffffffffffffffffffffffffffffffffffff1673ffffffffffffffffffffffffffffffffffffffff1681526020019081526020016000205461083f90919063ffffffff16565b6000803373ffffffffffffffffffffffffffffffffffffffff1673ffffffffffffffffffffffffffffffffffffffff16815260200190815260200160002081905550600030905060008060019050600360009054906101000a900473ffffffffffffffffffffffffffffffffffffffff1673ffffffffffffffffffffffffffffffffffffffff1663474cf53d34600860009054906101000a900473ffffffffffffffffffffffffffffffffffffffff1686866040518563ffffffff1660e01b815260040161046d93929190610a0a565b6000604051808303818588803b15801561048657600080fd5b505af115801561049a573d6000803e3d6000fd5b50505050506000600660009054906101000a900473ffffffffffffffffffffffffffffffffffffffff1673ffffffffffffffffffffffffffffffffffffffff1663b3596f07600960009054906101000a900473ffffffffffffffffffffffffffffffffffffffff166040518263ffffffff1660e01b815260040161051e91906109ef565b60206040518083038186803b15801561053657600080fd5b505afa15801561054a573d6000803e3d6000fd5b505050506040513d601f19601f8201168201806040525081019061056e9190610924565b905080600a8190555060008114156105af577f4e487b7100000000000000000000000000000000000000000000000000000000600052600160045260246000fd5b600460009054906101000a900473ffffffffffffffffffffffffffffffffffffffff1673ffffffffffffffffffffffffffffffffffffffff1663a415bcad600960009054906101000a900473ffffffffffffffffffffffffffffffffffffffff16878587896040518663ffffffff1660e01b8152600401610634959493929190610a6a565b600060405180830381600087803b15801561064e57600080fd5b505af1158015610662573d6000803e3d6000fd5b505050506106b885600160003373ffffffffffffffffffffffffffffffffffffffff1673ffffffffffffffffffffffffffffffffffffffff1681526020019081526020016000205461083f90919063ffffffff16565b600160003373ffffffffffffffffffffffffffffffffffffffff1673ffffffffffffffffffffffffffffffffffffffff168152602001908152602001600020819055506000600960009054906101000a900473ffffffffffffffffffffffffffffffffffffffff1690508073ffffffffffffffffffffffffffffffffffffffff1663a9059cbb33886040518363ffffffff1660e01b815260040161075d929190610a41565b602060405180830381600087803b15801561077757600080fd5b505af115801561078b573d6000803e3d6000fd5b505050506040513d601f19601f820116820180604052508101906107af91906108d2565b6107b857600080fd5b7f5cd07a025c6fbd47d4612b920362de53747ad33ad1f516de47c8511beaf56e5c600a54873433426040516107f1959493929190610b66565b60405180910390a1505050505050565b60016020528060005260406000206000915090505481565b600360009054906101000a900473ffffffffffffffffffffffffffffffffffffffff1681565b6000818361084d9190610bd5565b905092915050565b60008135905061086481610de5565b92915050565b60008151905061087981610dfc565b92915050565b60008135905061088e81610e13565b92915050565b6000815190506108a381610e13565b92915050565b6000602082840312156108bb57600080fd5b60006108c984828501610855565b91505092915050565b6000602082840312156108e457600080fd5b60006108f28482850161086a565b91505092915050565b60006020828403121561090d57600080fd5b600061091b8482850161087f565b91505092915050565b60006020828403121561093657600080fd5b600061094484828501610894565b91505092915050565b61095681610c2b565b82525050565b61096581610c81565b82525050565b61097481610ca5565b82525050565b61098381610cc9565b82525050565b61099281610ced565b82525050565b60006109a382610bb9565b6109ad8185610bc4565b93506109bd818560208601610d11565b6109c681610dd4565b840191505092915050565b6109da81610c49565b82525050565b6109e981610c77565b82525050565b6000602082019050610a04600083018461094d565b92915050565b6000606082019050610a1f600083018661094d565b610a2c602083018561094d565b610a3960408301846109d1565b949350505050565b6000604082019050610a56600083018561094d565b610a6360208301846109e0565b9392505050565b600060a082019050610a7f600083018861094d565b610a8c60208301876109e0565b610a9960408301866109e0565b610aa660608301856109d1565b610ab3608083018461094d565b9695505050505050565b6000602082019050610ad2600083018461095c565b92915050565b6000602082019050610aed600083018461096b565b92915050565b6000602082019050610b08600083018461097a565b92915050565b6000602082019050610b236000830184610989565b92915050565b60006020820190508181036000830152610b438184610998565b905092915050565b6000602082019050610b6060008301846109e0565b92915050565b600060a082019050610b7b60008301886109e0565b610b8860208301876109e0565b610b9560408301866109e0565b610ba2606083018561094d565b610baf60808301846109e0565b9695505050505050565b600081519050919050565b600082825260208201905092915050565b6000610be082610c77565b9150610beb83610c77565b9250827fffffffffffffffffffffffffffffffffffffffffffffffffffffffffffffffff03821115610c2057610c1f610d76565b5b828201905092915050565b6000610c3682610c57565b9050919050565b60008115159050919050565b600061ffff82169050919050565b600073ffffffffffffffffffffffffffffffffffffffff82169050919050565b6000819050919050565b6000610c8c82610c93565b9050919050565b6000610c9e82610c57565b9050919050565b6000610cb082610cb7565b9050919050565b6000610cc282610c57565b9050919050565b6000610cd482610cdb565b9050919050565b6000610ce682610c57565b9050919050565b6000610cf882610cff565b9050919050565b6000610d0a82610c57565b9050919050565b60005b83811015610d2f578082015181840152602081019050610d14565b83811115610d3e576000848401525b50505050565b60006002820490506001821680610d5c57607f821691505b60208210811415610d7057610d6f610da5565b5b50919050565b7f4e487b7100000000000000000000000000000000000000000000000000000000600052601160045260246000fd5b7f4e487b7100000000000000000000000000000000000000000000000000000000600052602260045260246000fd5b6000601f19601f8301169050919050565b610dee81610c2b565b8114610df957600080fd5b50565b610e0581610c3d565b8114610e1057600080fd5b50565b610e1c81610c77565b8114610e2757600080fd5b5056fea26469706673582212206b81b69ee64489819b9bf56a501312257e43fb786a36c7a6bc3436d3507e4af064736f6c63430008000033",
  "immutableReferences": {},
  "source": "// SPDX-License-Identifier: MIT\npragma solidity ^0.8.0;\n\nimport \"@openzeppelin/contracts/token/ERC20/IERC20.sol\";\nimport \"@openzeppelin/contracts/utils/math/SafeMath.sol\";\nimport \"./IPriceOracle.sol\";\nimport \"./ILendingPool.sol\";\nimport \"./ILendingPoolAddressesProvider.sol\";\nimport \"./IWETHGateway.sol\";\n\ncontract BorrowDai {\n\tusing SafeMath for uint;\n\n\tmapping(address => uint256) public totalEthDeposited;\n\tmapping(address => uint256) public totalDaiBorrowed;\n\tstring public name = \"Borrow Dai\";\n\n\tevent Borrowed(\n\t\tuint256 daiEthPrice,\n\t\tuint256 amountDai,\n\t\tuint256 amountEth,\n\t\taddress user,\n\t\tuint256 timestamp\n\t);\n\n\tIWETHGateway public IWETH;\n\tILendingPool public lendingPool;\n\tILendingPoolAddressesProvider public provider;\n\tIPriceOracle public oracle;\n\taddress aWETH;\n\taddress addressLendingPool;\n\taddress DAI;\n\tuint256 public daiEthPrice;\n\n\tconstructor() {\n\t\tIWETH = IWETHGateway(address(0xcc9a0B7c43DC2a5F023Bb9b738E45B0Ef6B06E04));\n\t\tprovider = ILendingPoolAddressesProvider(address(0xB53C1a33016B2DC2fF3653530bfF1848a515c8c5));\n\t\taddressLendingPool = provider.getLendingPool();\n\t\tlendingPool = ILendingPool(addressLendingPool);\n\t\toracle = IPriceOracle(address(0xA50ba011c48153De246E5192C8f9258A2ba79Ca9));\n\t\taWETH = address(0x030bA81f1c18d280636F32af80b9AAd02Cf0854e);\n\t\tDAI = address(0x6B175474E89094C44Da98b954EedeAC495271d0F);\n\t\tdaiEthPrice = oracle.getAssetPrice(DAI);\n\t}\n\n\treceive() external payable {\n\t}\n\n\tfunction borrow(uint256 DAIamount) external payable {\n\t\ttotalEthDeposited[msg.sender] = totalEthDeposited[msg.sender].add(msg.value);\n\n\t\taddress onBehalfOf = address(this);\n\t\tuint16 referralCode = 0;\n\t\tuint256 variableRate = 1;\n\n\t\tIWETH.depositETH{value: msg.value}(addressLendingPool, onBehalfOf, referralCode);\n\n\t\tuint256 daiEth = oracle.getAssetPrice(DAI);\n\t\tdaiEthPrice = daiEth;\n\t\tassert(daiEth != 0);\n\n\t\tlendingPool.borrow(DAI, DAIamount, variableRate, referralCode, onBehalfOf);\n\t\ttotalDaiBorrowed[msg.sender] = totalDaiBorrowed[msg.sender].add(DAIamount);\n\n\t\tIERC20 daiToken = IERC20(DAI);\n\t\trequire(daiToken.transfer(msg.sender, DAIamount));\n\n\t\temit Borrowed(daiEthPrice, DAIamount, msg.value, msg.sender, block.timestamp);\n\t}\n}",
  "sourcePath": "/Users/jaydendavila/Desktop/Code/projects/aave_dapp/src/contracts/borrow.sol",
  "compiler": {
    "name": "solc",
    "version": "0.8.0+commit.c7dfd78e.Emscripten.clang"
  },
  "schemaVersion": "3.4.4",
  "updatedAt": "2022-02-16T02:00:11.871Z",
  "networkType": "ethereum",
  "devdoc": {
    "kind": "dev",
    "methods": {},
    "version": 1
  },
  "userdoc": {
    "kind": "user",
    "methods": {},
    "version": 1
  }
}