{
  "contractName": "Errors",
  "abi": [
    {
      "inputs": [],
      "name": "BORROW_ALLOWANCE_NOT_ENOUGH",
      "outputs": [
        {
          "internalType": "string",
          "name": "",
          "type": "string"
        }
      ],
      "stateMutability": "view",
      "type": "function"
    },
    {
      "inputs": [],
      "name": "CALLER_NOT_POOL_ADMIN",
      "outputs": [
        {
          "internalType": "string",
          "name": "",
          "type": "string"
        }
      ],
      "stateMutability": "view",
      "type": "function"
    },
    {
      "inputs": [],
      "name": "CT_CALLER_MUST_BE_LENDING_POOL",
      "outputs": [
        {
          "internalType": "string",
          "name": "",
          "type": "string"
        }
      ],
      "stateMutability": "view",
      "type": "function"
    },
    {
      "inputs": [],
      "name": "CT_CANNOT_GIVE_ALLOWANCE_TO_HIMSELF",
      "outputs": [
        {
          "internalType": "string",
          "name": "",
          "type": "string"
        }
      ],
      "stateMutability": "view",
      "type": "function"
    },
    {
      "inputs": [],
      "name": "CT_INVALID_BURN_AMOUNT",
      "outputs": [
        {
          "internalType": "string",
          "name": "",
          "type": "string"
        }
      ],
      "stateMutability": "view",
      "type": "function"
    },
    {
      "inputs": [],
      "name": "CT_INVALID_MINT_AMOUNT",
      "outputs": [
        {
          "internalType": "string",
          "name": "",
          "type": "string"
        }
      ],
      "stateMutability": "view",
      "type": "function"
    },
    {
      "inputs": [],
      "name": "CT_TRANSFER_AMOUNT_NOT_GT_0",
      "outputs": [
        {
          "internalType": "string",
          "name": "",
          "type": "string"
        }
      ],
      "stateMutability": "view",
      "type": "function"
    },
    {
      "inputs": [],
      "name": "LPAPR_INVALID_ADDRESSES_PROVIDER_ID",
      "outputs": [
        {
          "internalType": "string",
          "name": "",
          "type": "string"
        }
      ],
      "stateMutability": "view",
      "type": "function"
    },
    {
      "inputs": [],
      "name": "LPAPR_PROVIDER_NOT_REGISTERED",
      "outputs": [
        {
          "internalType": "string",
          "name": "",
          "type": "string"
        }
      ],
      "stateMutability": "view",
      "type": "function"
    },
    {
      "inputs": [],
      "name": "LPCM_COLLATERAL_CANNOT_BE_LIQUIDATED",
      "outputs": [
        {
          "internalType": "string",
          "name": "",
          "type": "string"
        }
      ],
      "stateMutability": "view",
      "type": "function"
    },
    {
      "inputs": [],
      "name": "LPCM_HEALTH_FACTOR_NOT_BELOW_THRESHOLD",
      "outputs": [
        {
          "internalType": "string",
          "name": "",
          "type": "string"
        }
      ],
      "stateMutability": "view",
      "type": "function"
    },
    {
      "inputs": [],
      "name": "LPCM_NOT_ENOUGH_LIQUIDITY_TO_LIQUIDATE",
      "outputs": [
        {
          "internalType": "string",
          "name": "",
          "type": "string"
        }
      ],
      "stateMutability": "view",
      "type": "function"
    },
    {
      "inputs": [],
      "name": "LPCM_NO_ERRORS",
      "outputs": [
        {
          "internalType": "string",
          "name": "",
          "type": "string"
        }
      ],
      "stateMutability": "view",
      "type": "function"
    },
    {
      "inputs": [],
      "name": "LPCM_SPECIFIED_CURRENCY_NOT_BORROWED_BY_USER",
      "outputs": [
        {
          "internalType": "string",
          "name": "",
          "type": "string"
        }
      ],
      "stateMutability": "view",
      "type": "function"
    },
    {
      "inputs": [],
      "name": "LPC_CALLER_NOT_EMERGENCY_ADMIN",
      "outputs": [
        {
          "internalType": "string",
          "name": "",
          "type": "string"
        }
      ],
      "stateMutability": "view",
      "type": "function"
    },
    {
      "inputs": [],
      "name": "LPC_INVALID_ADDRESSES_PROVIDER_ID",
      "outputs": [
        {
          "internalType": "string",
          "name": "",
          "type": "string"
        }
      ],
      "stateMutability": "view",
      "type": "function"
    },
    {
      "inputs": [],
      "name": "LPC_INVALID_ATOKEN_POOL_ADDRESS",
      "outputs": [
        {
          "internalType": "string",
          "name": "",
          "type": "string"
        }
      ],
      "stateMutability": "view",
      "type": "function"
    },
    {
      "inputs": [],
      "name": "LPC_INVALID_CONFIGURATION",
      "outputs": [
        {
          "internalType": "string",
          "name": "",
          "type": "string"
        }
      ],
      "stateMutability": "view",
      "type": "function"
    },
    {
      "inputs": [],
      "name": "LPC_INVALID_STABLE_DEBT_TOKEN_POOL_ADDRESS",
      "outputs": [
        {
          "internalType": "string",
          "name": "",
          "type": "string"
        }
      ],
      "stateMutability": "view",
      "type": "function"
    },
    {
      "inputs": [],
      "name": "LPC_INVALID_STABLE_DEBT_TOKEN_UNDERLYING_ADDRESS",
      "outputs": [
        {
          "internalType": "string",
          "name": "",
          "type": "string"
        }
      ],
      "stateMutability": "view",
      "type": "function"
    },
    {
      "inputs": [],
      "name": "LPC_INVALID_VARIABLE_DEBT_TOKEN_POOL_ADDRESS",
      "outputs": [
        {
          "internalType": "string",
          "name": "",
          "type": "string"
        }
      ],
      "stateMutability": "view",
      "type": "function"
    },
    {
      "inputs": [],
      "name": "LPC_INVALID_VARIABLE_DEBT_TOKEN_UNDERLYING_ADDRESS",
      "outputs": [
        {
          "internalType": "string",
          "name": "",
          "type": "string"
        }
      ],
      "stateMutability": "view",
      "type": "function"
    },
    {
      "inputs": [],
      "name": "LPC_RESERVE_LIQUIDITY_NOT_0",
      "outputs": [
        {
          "internalType": "string",
          "name": "",
          "type": "string"
        }
      ],
      "stateMutability": "view",
      "type": "function"
    },
    {
      "inputs": [],
      "name": "LP_CALLER_MUST_BE_AN_ATOKEN",
      "outputs": [
        {
          "internalType": "string",
          "name": "",
          "type": "string"
        }
      ],
      "stateMutability": "view",
      "type": "function"
    },
    {
      "inputs": [],
      "name": "LP_CALLER_NOT_LENDING_POOL_CONFIGURATOR",
      "outputs": [
        {
          "internalType": "string",
          "name": "",
          "type": "string"
        }
      ],
      "stateMutability": "view",
      "type": "function"
    },
    {
      "inputs": [],
      "name": "LP_FAILED_COLLATERAL_SWAP",
      "outputs": [
        {
          "internalType": "string",
          "name": "",
          "type": "string"
        }
      ],
      "stateMutability": "view",
      "type": "function"
    },
    {
      "inputs": [],
      "name": "LP_FAILED_REPAY_WITH_COLLATERAL",
      "outputs": [
        {
          "internalType": "string",
          "name": "",
          "type": "string"
        }
      ],
      "stateMutability": "view",
      "type": "function"
    },
    {
      "inputs": [],
      "name": "LP_INCONSISTENT_FLASHLOAN_PARAMS",
      "outputs": [
        {
          "internalType": "string",
          "name": "",
          "type": "string"
        }
      ],
      "stateMutability": "view",
      "type": "function"
    },
    {
      "inputs": [],
      "name": "LP_INCONSISTENT_PARAMS_LENGTH",
      "outputs": [
        {
          "internalType": "string",
          "name": "",
          "type": "string"
        }
      ],
      "stateMutability": "view",
      "type": "function"
    },
    {
      "inputs": [],
      "name": "LP_INCONSISTENT_PROTOCOL_ACTUAL_BALANCE",
      "outputs": [
        {
          "internalType": "string",
          "name": "",
          "type": "string"
        }
      ],
      "stateMutability": "view",
      "type": "function"
    },
    {
      "inputs": [],
      "name": "LP_INTEREST_RATE_REBALANCE_CONDITIONS_NOT_MET",
      "outputs": [
        {
          "internalType": "string",
          "name": "",
          "type": "string"
        }
      ],
      "stateMutability": "view",
      "type": "function"
    },
    {
      "inputs": [],
      "name": "LP_INVALID_EQUAL_ASSETS_TO_SWAP",
      "outputs": [
        {
          "internalType": "string",
          "name": "",
          "type": "string"
        }
      ],
      "stateMutability": "view",
      "type": "function"
    },
    {
      "inputs": [],
      "name": "LP_INVALID_FLASHLOAN_MODE",
      "outputs": [
        {
          "internalType": "string",
          "name": "",
          "type": "string"
        }
      ],
      "stateMutability": "view",
      "type": "function"
    },
    {
      "inputs": [],
      "name": "LP_INVALID_FLASH_LOAN_EXECUTOR_RETURN",
      "outputs": [
        {
          "internalType": "string",
          "name": "",
          "type": "string"
        }
      ],
      "stateMutability": "view",
      "type": "function"
    },
    {
      "inputs": [],
      "name": "LP_IS_PAUSED",
      "outputs": [
        {
          "internalType": "string",
          "name": "",
          "type": "string"
        }
      ],
      "stateMutability": "view",
      "type": "function"
    },
    {
      "inputs": [],
      "name": "LP_LIQUIDATION_CALL_FAILED",
      "outputs": [
        {
          "internalType": "string",
          "name": "",
          "type": "string"
        }
      ],
      "stateMutability": "view",
      "type": "function"
    },
    {
      "inputs": [],
      "name": "LP_NOT_CONTRACT",
      "outputs": [
        {
          "internalType": "string",
          "name": "",
          "type": "string"
        }
      ],
      "stateMutability": "view",
      "type": "function"
    },
    {
      "inputs": [],
      "name": "LP_NOT_ENOUGH_LIQUIDITY_TO_BORROW",
      "outputs": [
        {
          "internalType": "string",
          "name": "",
          "type": "string"
        }
      ],
      "stateMutability": "view",
      "type": "function"
    },
    {
      "inputs": [],
      "name": "LP_NOT_ENOUGH_STABLE_BORROW_BALANCE",
      "outputs": [
        {
          "internalType": "string",
          "name": "",
          "type": "string"
        }
      ],
      "stateMutability": "view",
      "type": "function"
    },
    {
      "inputs": [],
      "name": "LP_NO_MORE_RESERVES_ALLOWED",
      "outputs": [
        {
          "internalType": "string",
          "name": "",
          "type": "string"
        }
      ],
      "stateMutability": "view",
      "type": "function"
    },
    {
      "inputs": [],
      "name": "LP_REENTRANCY_NOT_ALLOWED",
      "outputs": [
        {
          "internalType": "string",
          "name": "",
          "type": "string"
        }
      ],
      "stateMutability": "view",
      "type": "function"
    },
    {
      "inputs": [],
      "name": "LP_REQUESTED_AMOUNT_TOO_SMALL",
      "outputs": [
        {
          "internalType": "string",
          "name": "",
          "type": "string"
        }
      ],
      "stateMutability": "view",
      "type": "function"
    },
    {
      "inputs": [],
      "name": "MATH_ADDITION_OVERFLOW",
      "outputs": [
        {
          "internalType": "string",
          "name": "",
          "type": "string"
        }
      ],
      "stateMutability": "view",
      "type": "function"
    },
    {
      "inputs": [],
      "name": "MATH_DIVISION_BY_ZERO",
      "outputs": [
        {
          "internalType": "string",
          "name": "",
          "type": "string"
        }
      ],
      "stateMutability": "view",
      "type": "function"
    },
    {
      "inputs": [],
      "name": "MATH_MULTIPLICATION_OVERFLOW",
      "outputs": [
        {
          "internalType": "string",
          "name": "",
          "type": "string"
        }
      ],
      "stateMutability": "view",
      "type": "function"
    },
    {
      "inputs": [],
      "name": "RC_INVALID_DECIMALS",
      "outputs": [
        {
          "internalType": "string",
          "name": "",
          "type": "string"
        }
      ],
      "stateMutability": "view",
      "type": "function"
    },
    {
      "inputs": [],
      "name": "RC_INVALID_LIQ_BONUS",
      "outputs": [
        {
          "internalType": "string",
          "name": "",
          "type": "string"
        }
      ],
      "stateMutability": "view",
      "type": "function"
    },
    {
      "inputs": [],
      "name": "RC_INVALID_LIQ_THRESHOLD",
      "outputs": [
        {
          "internalType": "string",
          "name": "",
          "type": "string"
        }
      ],
      "stateMutability": "view",
      "type": "function"
    },
    {
      "inputs": [],
      "name": "RC_INVALID_LTV",
      "outputs": [
        {
          "internalType": "string",
          "name": "",
          "type": "string"
        }
      ],
      "stateMutability": "view",
      "type": "function"
    },
    {
      "inputs": [],
      "name": "RC_INVALID_RESERVE_FACTOR",
      "outputs": [
        {
          "internalType": "string",
          "name": "",
          "type": "string"
        }
      ],
      "stateMutability": "view",
      "type": "function"
    },
    {
      "inputs": [],
      "name": "RL_LIQUIDITY_INDEX_OVERFLOW",
      "outputs": [
        {
          "internalType": "string",
          "name": "",
          "type": "string"
        }
      ],
      "stateMutability": "view",
      "type": "function"
    },
    {
      "inputs": [],
      "name": "RL_LIQUIDITY_RATE_OVERFLOW",
      "outputs": [
        {
          "internalType": "string",
          "name": "",
          "type": "string"
        }
      ],
      "stateMutability": "view",
      "type": "function"
    },
    {
      "inputs": [],
      "name": "RL_RESERVE_ALREADY_INITIALIZED",
      "outputs": [
        {
          "internalType": "string",
          "name": "",
          "type": "string"
        }
      ],
      "stateMutability": "view",
      "type": "function"
    },
    {
      "inputs": [],
      "name": "RL_STABLE_BORROW_RATE_OVERFLOW",
      "outputs": [
        {
          "internalType": "string",
          "name": "",
          "type": "string"
        }
      ],
      "stateMutability": "view",
      "type": "function"
    },
    {
      "inputs": [],
      "name": "RL_VARIABLE_BORROW_INDEX_OVERFLOW",
      "outputs": [
        {
          "internalType": "string",
          "name": "",
          "type": "string"
        }
      ],
      "stateMutability": "view",
      "type": "function"
    },
    {
      "inputs": [],
      "name": "RL_VARIABLE_BORROW_RATE_OVERFLOW",
      "outputs": [
        {
          "internalType": "string",
          "name": "",
          "type": "string"
        }
      ],
      "stateMutability": "view",
      "type": "function"
    },
    {
      "inputs": [],
      "name": "SDT_BURN_EXCEEDS_BALANCE",
      "outputs": [
        {
          "internalType": "string",
          "name": "",
          "type": "string"
        }
      ],
      "stateMutability": "view",
      "type": "function"
    },
    {
      "inputs": [],
      "name": "SDT_STABLE_DEBT_OVERFLOW",
      "outputs": [
        {
          "internalType": "string",
          "name": "",
          "type": "string"
        }
      ],
      "stateMutability": "view",
      "type": "function"
    },
    {
      "inputs": [],
      "name": "UL_INVALID_INDEX",
      "outputs": [
        {
          "internalType": "string",
          "name": "",
          "type": "string"
        }
      ],
      "stateMutability": "view",
      "type": "function"
    },
    {
      "inputs": [],
      "name": "VL_AMOUNT_BIGGER_THAN_MAX_LOAN_SIZE_STABLE",
      "outputs": [
        {
          "internalType": "string",
          "name": "",
          "type": "string"
        }
      ],
      "stateMutability": "view",
      "type": "function"
    },
    {
      "inputs": [],
      "name": "VL_BORROWING_NOT_ENABLED",
      "outputs": [
        {
          "internalType": "string",
          "name": "",
          "type": "string"
        }
      ],
      "stateMutability": "view",
      "type": "function"
    },
    {
      "inputs": [],
      "name": "VL_COLLATERAL_BALANCE_IS_0",
      "outputs": [
        {
          "internalType": "string",
          "name": "",
          "type": "string"
        }
      ],
      "stateMutability": "view",
      "type": "function"
    },
    {
      "inputs": [],
      "name": "VL_COLLATERAL_CANNOT_COVER_NEW_BORROW",
      "outputs": [
        {
          "internalType": "string",
          "name": "",
          "type": "string"
        }
      ],
      "stateMutability": "view",
      "type": "function"
    },
    {
      "inputs": [],
      "name": "VL_COLLATERAL_SAME_AS_BORROWING_CURRENCY",
      "outputs": [
        {
          "internalType": "string",
          "name": "",
          "type": "string"
        }
      ],
      "stateMutability": "view",
      "type": "function"
    },
    {
      "inputs": [],
      "name": "VL_CURRENT_AVAILABLE_LIQUIDITY_NOT_ENOUGH",
      "outputs": [
        {
          "internalType": "string",
          "name": "",
          "type": "string"
        }
      ],
      "stateMutability": "view",
      "type": "function"
    },
    {
      "inputs": [],
      "name": "VL_DEPOSIT_ALREADY_IN_USE",
      "outputs": [
        {
          "internalType": "string",
          "name": "",
          "type": "string"
        }
      ],
      "stateMutability": "view",
      "type": "function"
    },
    {
      "inputs": [],
      "name": "VL_HEALTH_FACTOR_LOWER_THAN_LIQUIDATION_THRESHOLD",
      "outputs": [
        {
          "internalType": "string",
          "name": "",
          "type": "string"
        }
      ],
      "stateMutability": "view",
      "type": "function"
    },
    {
      "inputs": [],
      "name": "VL_INCONSISTENT_FLASHLOAN_PARAMS",
      "outputs": [
        {
          "internalType": "string",
          "name": "",
          "type": "string"
        }
      ],
      "stateMutability": "view",
      "type": "function"
    },
    {
      "inputs": [],
      "name": "VL_INVALID_AMOUNT",
      "outputs": [
        {
          "internalType": "string",
          "name": "",
          "type": "string"
        }
      ],
      "stateMutability": "view",
      "type": "function"
    },
    {
      "inputs": [],
      "name": "VL_INVALID_INTEREST_RATE_MODE_SELECTED",
      "outputs": [
        {
          "internalType": "string",
          "name": "",
          "type": "string"
        }
      ],
      "stateMutability": "view",
      "type": "function"
    },
    {
      "inputs": [],
      "name": "VL_NOT_ENOUGH_AVAILABLE_USER_BALANCE",
      "outputs": [
        {
          "internalType": "string",
          "name": "",
          "type": "string"
        }
      ],
      "stateMutability": "view",
      "type": "function"
    },
    {
      "inputs": [],
      "name": "VL_NO_ACTIVE_RESERVE",
      "outputs": [
        {
          "internalType": "string",
          "name": "",
          "type": "string"
        }
      ],
      "stateMutability": "view",
      "type": "function"
    },
    {
      "inputs": [],
      "name": "VL_NO_DEBT_OF_SELECTED_TYPE",
      "outputs": [
        {
          "internalType": "string",
          "name": "",
          "type": "string"
        }
      ],
      "stateMutability": "view",
      "type": "function"
    },
    {
      "inputs": [],
      "name": "VL_NO_EXPLICIT_AMOUNT_TO_REPAY_ON_BEHALF",
      "outputs": [
        {
          "internalType": "string",
          "name": "",
          "type": "string"
        }
      ],
      "stateMutability": "view",
      "type": "function"
    },
    {
      "inputs": [],
      "name": "VL_NO_STABLE_RATE_LOAN_IN_RESERVE",
      "outputs": [
        {
          "internalType": "string",
          "name": "",
          "type": "string"
        }
      ],
      "stateMutability": "view",
      "type": "function"
    },
    {
      "inputs": [],
      "name": "VL_NO_VARIABLE_RATE_LOAN_IN_RESERVE",
      "outputs": [
        {
          "internalType": "string",
          "name": "",
          "type": "string"
        }
      ],
      "stateMutability": "view",
      "type": "function"
    },
    {
      "inputs": [],
      "name": "VL_RESERVE_FROZEN",
      "outputs": [
        {
          "internalType": "string",
          "name": "",
          "type": "string"
        }
      ],
      "stateMutability": "view",
      "type": "function"
    },
    {
      "inputs": [],
      "name": "VL_STABLE_BORROWING_NOT_ENABLED",
      "outputs": [
        {
          "internalType": "string",
          "name": "",
          "type": "string"
        }
      ],
      "stateMutability": "view",
      "type": "function"
    },
    {
      "inputs": [],
      "name": "VL_TRANSFER_NOT_ALLOWED",
      "outputs": [
        {
          "internalType": "string",
          "name": "",
          "type": "string"
        }
      ],
      "stateMutability": "view",
      "type": "function"
    },
    {
      "inputs": [],
      "name": "VL_UNDERLYING_BALANCE_NOT_GREATER_THAN_0",
      "outputs": [
        {
          "internalType": "string",
          "name": "",
          "type": "string"
        }
      ],
      "stateMutability": "view",
      "type": "function"
    }
  ],
  "bytecode": "0x613f85610026600b82828239805160001a60731461001957fe5b30600052607381538281f3fe730000000000000000000000000000000000000000301460806040526004361061048a5760003560e01c80636ba4271f11610261578063cdad445a11610150578063e2c16d69116100cd578063f11c672011610091578063f11c672014612af0578063f3d9cc1114612b73578063f902735d14612bf6578063fb681def14612c79578063fe75fd2614612cfc5761048a565b8063e2c16d6914612861578063e6632748146128e4578063e7bf91b314612967578063eca85d3a146129ea578063f047325914612a6d5761048a565b8063d7510e0c11610114578063d7510e0c146125d2578063d7b079aa14612655578063daf23547146126d8578063e0d7dfd71461275b578063e29425dc146127de5761048a565b8063cdad445a14612343578063d3e370ee146123c6578063d44e8e8814612449578063d57bb964146124cc578063d6f681b61461254f5761048a565b8063a39ed4ff116101de578063b89652cd116101a2578063b89652cd146120b4578063bd013f5b14612137578063c09e2618146121ba578063c2d628df1461223d578063cc5fc44c146122c05761048a565b8063a39ed4ff14611e25578063a844024114611ea8578063ac75323614611f2b578063b36a2cf314611fae578063b72e40c7146120315761048a565b80637865a627116102255780637865a62714611b96578063871938a814611c1957806391a9fb1814611c9c5780639be4f03a14611d1f578063a2fbc8ad14611da25761048a565b80636ba4271f146119075780636d422aa11461198a578063708b8dd314611a0d57806371a629da14611a9057806376f1903014611b135761048a565b80633aa786a81161037d5780634a529f91116102fa578063614cf6a1116102be578063614cf6a114611678578063637a5a12146116fb5780636422b2571461177e57806365344799146118015780636ab5e615146118845761048a565b80634a529f91146113e95780634fe4f1ab1461146c57806355bab12c146114ef5780635a9786d4146115725780635e869ff1146115f55761048a565b80634349e3d8116103415780634349e3d81461115a57806344942004146111dd57806344dc4f701461126057806347d25300146112e35780634927c63a146113665761048a565b80633aa786a814610ecb5780633b5d25aa14610f4e5780633f5d6ec814610fd1578063407374a41461105457806341b40ba5146110d75761048a565b806322a6f08e1161040b578063333e8ea8116103cf578063333e8ea814610c3c57806335a9d21d14610cbf57806336565ab114610d425780633872b0ad14610dc5578063390f34ba14610e485761048a565b806322a6f08e146109ad5780632ace698a14610a305780632b34c34914610ab35780632b9c57f614610b365780632ea347b014610bb95761048a565b80631291a38b116104525780631291a38b1461071e578063179476c5146107a15780631befa78d146108245780631ea7c604146108a75780631ec68b1d1461092a5761048a565b806302454ad31461048f578063029d23441461051257806306f355ad146105955780630b8fd588146106185780630f5ee4821461069b575b600080fd5b610497612d7f565b6040518080602001828103825283818151815260200191508051906020019080838360005b838110156104d75780820151818401526020810190506104bc565b50505050905090810190601f1680156105045780820380516001836020036101000a031916815260200191505b509250505060405180910390f35b61051a612db8565b6040518080602001828103825283818151815260200191508051906020019080838360005b8381101561055a57808201518184015260208101905061053f565b50505050905090810190601f1680156105875780820380516001836020036101000a031916815260200191505b509250505060405180910390f35b61059d612df1565b6040518080602001828103825283818151815260200191508051906020019080838360005b838110156105dd5780820151818401526020810190506105c2565b50505050905090810190601f16801561060a5780820380516001836020036101000a031916815260200191505b509250505060405180910390f35b610620612e2a565b6040518080602001828103825283818151815260200191508051906020019080838360005b83811015610660578082015181840152602081019050610645565b50505050905090810190601f16801561068d5780820380516001836020036101000a031916815260200191505b509250505060405180910390f35b6106a3612e63565b6040518080602001828103825283818151815260200191508051906020019080838360005b838110156106e35780820151818401526020810190506106c8565b50505050905090810190601f1680156107105780820380516001836020036101000a031916815260200191505b509250505060405180910390f35b610726612e9c565b6040518080602001828103825283818151815260200191508051906020019080838360005b8381101561076657808201518184015260208101905061074b565b50505050905090810190601f1680156107935780820380516001836020036101000a031916815260200191505b509250505060405180910390f35b6107a9612ed5565b6040518080602001828103825283818151815260200191508051906020019080838360005b838110156107e95780820151818401526020810190506107ce565b50505050905090810190601f1680156108165780820380516001836020036101000a031916815260200191505b509250505060405180910390f35b61082c612f0e565b6040518080602001828103825283818151815260200191508051906020019080838360005b8381101561086c578082015181840152602081019050610851565b50505050905090810190601f1680156108995780820380516001836020036101000a031916815260200191505b509250505060405180910390f35b6108af612f47565b6040518080602001828103825283818151815260200191508051906020019080838360005b838110156108ef5780820151818401526020810190506108d4565b50505050905090810190601f16801561091c5780820380516001836020036101000a031916815260200191505b509250505060405180910390f35b610932612f80565b6040518080602001828103825283818151815260200191508051906020019080838360005b83811015610972578082015181840152602081019050610957565b50505050905090810190601f16801561099f5780820380516001836020036101000a031916815260200191505b509250505060405180910390f35b6109b5612fb9565b6040518080602001828103825283818151815260200191508051906020019080838360005b838110156109f55780820151818401526020810190506109da565b50505050905090810190601f168015610a225780820380516001836020036101000a031916815260200191505b509250505060405180910390f35b610a38612ff2565b6040518080602001828103825283818151815260200191508051906020019080838360005b83811015610a78578082015181840152602081019050610a5d565b50505050905090810190601f168015610aa55780820380516001836020036101000a031916815260200191505b509250505060405180910390f35b610abb61302b565b6040518080602001828103825283818151815260200191508051906020019080838360005b83811015610afb578082015181840152602081019050610ae0565b50505050905090810190601f168015610b285780820380516001836020036101000a031916815260200191505b509250505060405180910390f35b610b3e613064565b6040518080602001828103825283818151815260200191508051906020019080838360005b83811015610b7e578082015181840152602081019050610b63565b50505050905090810190601f168015610bab5780820380516001836020036101000a031916815260200191505b509250505060405180910390f35b610bc161309d565b6040518080602001828103825283818151815260200191508051906020019080838360005b83811015610c01578082015181840152602081019050610be6565b50505050905090810190601f168015610c2e5780820380516001836020036101000a031916815260200191505b509250505060405180910390f35b610c446130d6565b6040518080602001828103825283818151815260200191508051906020019080838360005b83811015610c84578082015181840152602081019050610c69565b50505050905090810190601f168015610cb15780820380516001836020036101000a031916815260200191505b509250505060405180910390f35b610cc761310f565b6040518080602001828103825283818151815260200191508051906020019080838360005b83811015610d07578082015181840152602081019050610cec565b50505050905090810190601f168015610d345780820380516001836020036101000a031916815260200191505b509250505060405180910390f35b610d4a613148565b6040518080602001828103825283818151815260200191508051906020019080838360005b83811015610d8a578082015181840152602081019050610d6f565b50505050905090810190601f168015610db75780820380516001836020036101000a031916815260200191505b509250505060405180910390f35b610dcd613181565b6040518080602001828103825283818151815260200191508051906020019080838360005b83811015610e0d578082015181840152602081019050610df2565b50505050905090810190601f168015610e3a5780820380516001836020036101000a031916815260200191505b509250505060405180910390f35b610e506131ba565b6040518080602001828103825283818151815260200191508051906020019080838360005b83811015610e90578082015181840152602081019050610e75565b50505050905090810190601f168015610ebd5780820380516001836020036101000a031916815260200191505b509250505060405180910390f35b610ed36131f3565b6040518080602001828103825283818151815260200191508051906020019080838360005b83811015610f13578082015181840152602081019050610ef8565b50505050905090810190601f168015610f405780820380516001836020036101000a031916815260200191505b509250505060405180910390f35b610f5661322c565b6040518080602001828103825283818151815260200191508051906020019080838360005b83811015610f96578082015181840152602081019050610f7b565b50505050905090810190601f168015610fc35780820380516001836020036101000a031916815260200191505b509250505060405180910390f35b610fd9613265565b6040518080602001828103825283818151815260200191508051906020019080838360005b83811015611019578082015181840152602081019050610ffe565b50505050905090810190601f1680156110465780820380516001836020036101000a031916815260200191505b509250505060405180910390f35b61105c61329e565b6040518080602001828103825283818151815260200191508051906020019080838360005b8381101561109c578082015181840152602081019050611081565b50505050905090810190601f1680156110c95780820380516001836020036101000a031916815260200191505b509250505060405180910390f35b6110df6132d7565b6040518080602001828103825283818151815260200191508051906020019080838360005b8381101561111f578082015181840152602081019050611104565b50505050905090810190601f16801561114c5780820380516001836020036101000a031916815260200191505b509250505060405180910390f35b611162613310565b6040518080602001828103825283818151815260200191508051906020019080838360005b838110156111a2578082015181840152602081019050611187565b50505050905090810190601f1680156111cf5780820380516001836020036101000a031916815260200191505b509250505060405180910390f35b6111e5613349565b6040518080602001828103825283818151815260200191508051906020019080838360005b8381101561122557808201518184015260208101905061120a565b50505050905090810190601f1680156112525780820380516001836020036101000a031916815260200191505b509250505060405180910390f35b611268613382565b6040518080602001828103825283818151815260200191508051906020019080838360005b838110156112a857808201518184015260208101905061128d565b50505050905090810190601f1680156112d55780820380516001836020036101000a031916815260200191505b509250505060405180910390f35b6112eb6133bb565b6040518080602001828103825283818151815260200191508051906020019080838360005b8381101561132b578082015181840152602081019050611310565b50505050905090810190601f1680156113585780820380516001836020036101000a031916815260200191505b509250505060405180910390f35b61136e6133f4565b6040518080602001828103825283818151815260200191508051906020019080838360005b838110156113ae578082015181840152602081019050611393565b50505050905090810190601f1680156113db5780820380516001836020036101000a031916815260200191505b509250505060405180910390f35b6113f161342d565b6040518080602001828103825283818151815260200191508051906020019080838360005b83811015611431578082015181840152602081019050611416565b50505050905090810190601f16801561145e5780820380516001836020036101000a031916815260200191505b509250505060405180910390f35b611474613466565b6040518080602001828103825283818151815260200191508051906020019080838360005b838110156114b4578082015181840152602081019050611499565b50505050905090810190601f1680156114e15780820380516001836020036101000a031916815260200191505b509250505060405180910390f35b6114f761349f565b6040518080602001828103825283818151815260200191508051906020019080838360005b8381101561153757808201518184015260208101905061151c565b50505050905090810190601f1680156115645780820380516001836020036101000a031916815260200191505b509250505060405180910390f35b61157a6134d8565b6040518080602001828103825283818151815260200191508051906020019080838360005b838110156115ba57808201518184015260208101905061159f565b50505050905090810190601f1680156115e75780820380516001836020036101000a031916815260200191505b509250505060405180910390f35b6115fd613511565b6040518080602001828103825283818151815260200191508051906020019080838360005b8381101561163d578082015181840152602081019050611622565b50505050905090810190601f16801561166a5780820380516001836020036101000a031916815260200191505b509250505060405180910390f35b61168061354a565b6040518080602001828103825283818151815260200191508051906020019080838360005b838110156116c05780820151818401526020810190506116a5565b50505050905090810190601f1680156116ed5780820380516001836020036101000a031916815260200191505b509250505060405180910390f35b611703613583565b6040518080602001828103825283818151815260200191508051906020019080838360005b83811015611743578082015181840152602081019050611728565b50505050905090810190601f1680156117705780820380516001836020036101000a031916815260200191505b509250505060405180910390f35b6117866135bc565b6040518080602001828103825283818151815260200191508051906020019080838360005b838110156117c65780820151818401526020810190506117ab565b50505050905090810190601f1680156117f35780820380516001836020036101000a031916815260200191505b509250505060405180910390f35b6118096135f5565b6040518080602001828103825283818151815260200191508051906020019080838360005b8381101561184957808201518184015260208101905061182e565b50505050905090810190601f1680156118765780820380516001836020036101000a031916815260200191505b509250505060405180910390f35b61188c61362e565b6040518080602001828103825283818151815260200191508051906020019080838360005b838110156118cc5780820151818401526020810190506118b1565b50505050905090810190601f1680156118f95780820380516001836020036101000a031916815260200191505b509250505060405180910390f35b61190f613667565b6040518080602001828103825283818151815260200191508051906020019080838360005b8381101561194f578082015181840152602081019050611934565b50505050905090810190601f16801561197c5780820380516001836020036101000a031916815260200191505b509250505060405180910390f35b6119926136a0565b6040518080602001828103825283818151815260200191508051906020019080838360005b838110156119d25780820151818401526020810190506119b7565b50505050905090810190601f1680156119ff5780820380516001836020036101000a031916815260200191505b509250505060405180910390f35b611a156136d9565b6040518080602001828103825283818151815260200191508051906020019080838360005b83811015611a55578082015181840152602081019050611a3a565b50505050905090810190601f168015611a825780820380516001836020036101000a031916815260200191505b509250505060405180910390f35b611a98613712565b6040518080602001828103825283818151815260200191508051906020019080838360005b83811015611ad8578082015181840152602081019050611abd565b50505050905090810190601f168015611b055780820380516001836020036101000a031916815260200191505b509250505060405180910390f35b611b1b61374b565b6040518080602001828103825283818151815260200191508051906020019080838360005b83811015611b5b578082015181840152602081019050611b40565b50505050905090810190601f168015611b885780820380516001836020036101000a031916815260200191505b509250505060405180910390f35b611b9e613784565b6040518080602001828103825283818151815260200191508051906020019080838360005b83811015611bde578082015181840152602081019050611bc3565b50505050905090810190601f168015611c0b5780820380516001836020036101000a031916815260200191505b509250505060405180910390f35b611c216137bd565b6040518080602001828103825283818151815260200191508051906020019080838360005b83811015611c61578082015181840152602081019050611c46565b50505050905090810190601f168015611c8e5780820380516001836020036101000a031916815260200191505b509250505060405180910390f35b611ca46137f6565b6040518080602001828103825283818151815260200191508051906020019080838360005b83811015611ce4578082015181840152602081019050611cc9565b50505050905090810190601f168015611d115780820380516001836020036101000a031916815260200191505b509250505060405180910390f35b611d2761382f565b6040518080602001828103825283818151815260200191508051906020019080838360005b83811015611d67578082015181840152602081019050611d4c565b50505050905090810190601f168015611d945780820380516001836020036101000a031916815260200191505b509250505060405180910390f35b611daa613868565b6040518080602001828103825283818151815260200191508051906020019080838360005b83811015611dea578082015181840152602081019050611dcf565b50505050905090810190601f168015611e175780820380516001836020036101000a031916815260200191505b509250505060405180910390f35b611e2d6138a1565b6040518080602001828103825283818151815260200191508051906020019080838360005b83811015611e6d578082015181840152602081019050611e52565b50505050905090810190601f168015611e9a5780820380516001836020036101000a031916815260200191505b509250505060405180910390f35b611eb06138da565b6040518080602001828103825283818151815260200191508051906020019080838360005b83811015611ef0578082015181840152602081019050611ed5565b50505050905090810190601f168015611f1d5780820380516001836020036101000a031916815260200191505b509250505060405180910390f35b611f33613913565b6040518080602001828103825283818151815260200191508051906020019080838360005b83811015611f73578082015181840152602081019050611f58565b50505050905090810190601f168015611fa05780820380516001836020036101000a031916815260200191505b509250505060405180910390f35b611fb661394c565b6040518080602001828103825283818151815260200191508051906020019080838360005b83811015611ff6578082015181840152602081019050611fdb565b50505050905090810190601f1680156120235780820380516001836020036101000a031916815260200191505b509250505060405180910390f35b612039613985565b6040518080602001828103825283818151815260200191508051906020019080838360005b8381101561207957808201518184015260208101905061205e565b50505050905090810190601f1680156120a65780820380516001836020036101000a031916815260200191505b509250505060405180910390f35b6120bc6139be565b6040518080602001828103825283818151815260200191508051906020019080838360005b838110156120fc5780820151818401526020810190506120e1565b50505050905090810190601f1680156121295780820380516001836020036101000a031916815260200191505b509250505060405180910390f35b61213f6139f7565b6040518080602001828103825283818151815260200191508051906020019080838360005b8381101561217f578082015181840152602081019050612164565b50505050905090810190601f1680156121ac5780820380516001836020036101000a031916815260200191505b509250505060405180910390f35b6121c2613a30565b6040518080602001828103825283818151815260200191508051906020019080838360005b838110156122025780820151818401526020810190506121e7565b50505050905090810190601f16801561222f5780820380516001836020036101000a031916815260200191505b509250505060405180910390f35b612245613a69565b6040518080602001828103825283818151815260200191508051906020019080838360005b8381101561228557808201518184015260208101905061226a565b50505050905090810190601f1680156122b25780820380516001836020036101000a031916815260200191505b509250505060405180910390f35b6122c8613aa2565b6040518080602001828103825283818151815260200191508051906020019080838360005b838110156123085780820151818401526020810190506122ed565b50505050905090810190601f1680156123355780820380516001836020036101000a031916815260200191505b509250505060405180910390f35b61234b613adb565b6040518080602001828103825283818151815260200191508051906020019080838360005b8381101561238b578082015181840152602081019050612370565b50505050905090810190601f1680156123b85780820380516001836020036101000a031916815260200191505b509250505060405180910390f35b6123ce613b14565b6040518080602001828103825283818151815260200191508051906020019080838360005b8381101561240e5780820151818401526020810190506123f3565b50505050905090810190601f16801561243b5780820380516001836020036101000a031916815260200191505b509250505060405180910390f35b612451613b4d565b6040518080602001828103825283818151815260200191508051906020019080838360005b83811015612491578082015181840152602081019050612476565b50505050905090810190601f1680156124be5780820380516001836020036101000a031916815260200191505b509250505060405180910390f35b6124d4613b86565b6040518080602001828103825283818151815260200191508051906020019080838360005b838110156125145780820151818401526020810190506124f9565b50505050905090810190601f1680156125415780820380516001836020036101000a031916815260200191505b509250505060405180910390f35b612557613bbf565b6040518080602001828103825283818151815260200191508051906020019080838360005b8381101561259757808201518184015260208101905061257c565b50505050905090810190601f1680156125c45780820380516001836020036101000a031916815260200191505b509250505060405180910390f35b6125da613bf8565b6040518080602001828103825283818151815260200191508051906020019080838360005b8381101561261a5780820151818401526020810190506125ff565b50505050905090810190601f1680156126475780820380516001836020036101000a031916815260200191505b509250505060405180910390f35b61265d613c31565b6040518080602001828103825283818151815260200191508051906020019080838360005b8381101561269d578082015181840152602081019050612682565b50505050905090810190601f1680156126ca5780820380516001836020036101000a031916815260200191505b509250505060405180910390f35b6126e0613c6a565b6040518080602001828103825283818151815260200191508051906020019080838360005b83811015612720578082015181840152602081019050612705565b50505050905090810190601f16801561274d5780820380516001836020036101000a031916815260200191505b509250505060405180910390f35b612763613ca3565b6040518080602001828103825283818151815260200191508051906020019080838360005b838110156127a3578082015181840152602081019050612788565b50505050905090810190601f1680156127d05780820380516001836020036101000a031916815260200191505b509250505060405180910390f35b6127e6613cdc565b6040518080602001828103825283818151815260200191508051906020019080838360005b8381101561282657808201518184015260208101905061280b565b50505050905090810190601f1680156128535780820380516001836020036101000a031916815260200191505b509250505060405180910390f35b612869613d15565b6040518080602001828103825283818151815260200191508051906020019080838360005b838110156128a957808201518184015260208101905061288e565b50505050905090810190601f1680156128d65780820380516001836020036101000a031916815260200191505b509250505060405180910390f35b6128ec613d4e565b6040518080602001828103825283818151815260200191508051906020019080838360005b8381101561292c578082015181840152602081019050612911565b50505050905090810190601f1680156129595780820380516001836020036101000a031916815260200191505b509250505060405180910390f35b61296f613d87565b6040518080602001828103825283818151815260200191508051906020019080838360005b838110156129af578082015181840152602081019050612994565b50505050905090810190601f1680156129dc5780820380516001836020036101000a031916815260200191505b509250505060405180910390f35b6129f2613dc0565b6040518080602001828103825283818151815260200191508051906020019080838360005b83811015612a32578082015181840152602081019050612a17565b50505050905090810190601f168015612a5f5780820380516001836020036101000a031916815260200191505b509250505060405180910390f35b612a75613df9565b6040518080602001828103825283818151815260200191508051906020019080838360005b83811015612ab5578082015181840152602081019050612a9a565b50505050905090810190601f168015612ae25780820380516001836020036101000a031916815260200191505b509250505060405180910390f35b612af8613e32565b6040518080602001828103825283818151815260200191508051906020019080838360005b83811015612b38578082015181840152602081019050612b1d565b50505050905090810190601f168015612b655780820380516001836020036101000a031916815260200191505b509250505060405180910390f35b612b7b613e6b565b6040518080602001828103825283818151815260200191508051906020019080838360005b83811015612bbb578082015181840152602081019050612ba0565b50505050905090810190601f168015612be85780820380516001836020036101000a031916815260200191505b509250505060405180910390f35b612bfe613ea4565b6040518080602001828103825283818151815260200191508051906020019080838360005b83811015612c3e578082015181840152602081019050612c23565b50505050905090810190601f168015612c6b5780820380516001836020036101000a031916815260200191505b509250505060405180910390f35b612c81613edd565b6040518080602001828103825283818151815260200191508051906020019080838360005b83811015612cc1578082015181840152602081019050612ca6565b50505050905090810190601f168015612cee5780820380516001836020036101000a031916815260200191505b509250505060405180910390f35b612d04613f16565b6040518080602001828103825283818151815260200191508051906020019080838360005b83811015612d44578082015181840152602081019050612d29565b50505050905090810190601f168015612d715780820380516001836020036101000a031916815260200191505b509250505060405180910390f35b6040518060400160405280600281526020017f373700000000000000000000000000000000000000000000000000000000000081525081565b6040518060400160405280600281526020017f343800000000000000000000000000000000000000000000000000000000000081525081565b6040518060400160405280600281526020017f333000000000000000000000000000000000000000000000000000000000000081525081565b6040518060400160405280600281526020017f323600000000000000000000000000000000000000000000000000000000000081525081565b6040518060400160405280600281526020017f343900000000000000000000000000000000000000000000000000000000000081525081565b6040518060400160405280600281526020017f353600000000000000000000000000000000000000000000000000000000000081525081565b6040518060400160405280600181526020017f340000000000000000000000000000000000000000000000000000000000000081525081565b6040518060400160405280600281526020017f383000000000000000000000000000000000000000000000000000000000000081525081565b6040518060400160405280600281526020017f343600000000000000000000000000000000000000000000000000000000000081525081565b6040518060400160405280600281526020017f313000000000000000000000000000000000000000000000000000000000000081525081565b6040518060400160405280600281526020017f323400000000000000000000000000000000000000000000000000000000000081525081565b6040518060400160405280600281526020017f313100000000000000000000000000000000000000000000000000000000000081525081565b6040518060400160405280600281526020017f323800000000000000000000000000000000000000000000000000000000000081525081565b6040518060400160405280600281526020017f353800000000000000000000000000000000000000000000000000000000000081525081565b6040518060400160405280600281526020017f353400000000000000000000000000000000000000000000000000000000000081525081565b6040518060400160405280600281526020017f373200000000000000000000000000000000000000000000000000000000000081525081565b6040518060400160405280600281526020017f313900000000000000000000000000000000000000000000000000000000000081525081565b6040518060400160405280600181526020017f370000000000000000000000000000000000000000000000000000000000000081525081565b6040518060400160405280600281526020017f333900000000000000000000000000000000000000000000000000000000000081525081565b6040518060400160405280600281526020017f323500000000000000000000000000000000000000000000000000000000000081525081565b6040518060400160405280600281526020017f313400000000000000000000000000000000000000000000000000000000000081525081565b6040518060400160405280600181526020017f380000000000000000000000000000000000000000000000000000000000000081525081565b6040518060400160405280600281526020017f373000000000000000000000000000000000000000000000000000000000000081525081565b6040518060400160405280600281526020017f343300000000000000000000000000000000000000000000000000000000000081525081565b6040518060400160405280600281526020017f333800000000000000000000000000000000000000000000000000000000000081525081565b6040518060400160405280600281526020017f353000000000000000000000000000000000000000000000000000000000000081525081565b6040518060400160405280600281526020017f353200000000000000000000000000000000000000000000000000000000000081525081565b6040518060400160405280600281526020017f323100000000000000000000000000000000000000000000000000000000000081525081565b6040518060400160405280600281526020017f373500000000000000000000000000000000000000000000000000000000000081525081565b6040518060400160405280600281526020017f313200000000000000000000000000000000000000000000000000000000000081525081565b6040518060400160405280600281526020017f323300000000000000000000000000000000000000000000000000000000000081525081565b6040518060400160405280600281526020017f353100000000000000000000000000000000000000000000000000000000000081525081565b6040518060400160405280600281526020017f363000000000000000000000000000000000000000000000000000000000000081525081565b6040518060400160405280600281526020017f343000000000000000000000000000000000000000000000000000000000000081525081565b6040518060400160405280600281526020017f363900000000000000000000000000000000000000000000000000000000000081525081565b6040518060400160405280600281526020017f363700000000000000000000000000000000000000000000000000000000000081525081565b6040518060400160405280600281526020017f373800000000000000000000000000000000000000000000000000000000000081525081565b6040518060400160405280600281526020017f313700000000000000000000000000000000000000000000000000000000000081525081565b6040518060400160405280600281526020017f333400000000000000000000000000000000000000000000000000000000000081525081565b6040518060400160405280600281526020017f313800000000000000000000000000000000000000000000000000000000000081525081565b6040518060400160405280600281526020017f323900000000000000000000000000000000000000000000000000000000000081525081565b6040518060400160405280600281526020017f353500000000000000000000000000000000000000000000000000000000000081525081565b6040518060400160405280600181526020017f390000000000000000000000000000000000000000000000000000000000000081525081565b6040518060400160405280600281526020017f343400000000000000000000000000000000000000000000000000000000000081525081565b6040518060400160405280600281526020017f363500000000000000000000000000000000000000000000000000000000000081525081565b6040518060400160405280600181526020017f320000000000000000000000000000000000000000000000000000000000000081525081565b6040518060400160405280600181526020017f310000000000000000000000000000000000000000000000000000000000000081525081565b6040518060400160405280600281526020017f313500000000000000000000000000000000000000000000000000000000000081525081565b6040518060400160405280600281526020017f373100000000000000000000000000000000000000000000000000000000000081525081565b6040518060400160405280600281526020017f333100000000000000000000000000000000000000000000000000000000000081525081565b6040518060400160405280600281526020017f313300000000000000000000000000000000000000000000000000000000000081525081565b6040518060400160405280600181526020017f350000000000000000000000000000000000000000000000000000000000000081525081565b6040518060400160405280600281526020017f333300000000000000000000000000000000000000000000000000000000000081525081565b6040518060400160405280600281526020017f323700000000000000000000000000000000000000000000000000000000000081525081565b6040518060400160405280600281526020017f373400000000000000000000000000000000000000000000000000000000000081525081565b6040518060400160405280600281526020017f323200000000000000000000000000000000000000000000000000000000000081525081565b6040518060400160405280600281526020017f363800000000000000000000000000000000000000000000000000000000000081525081565b6040518060400160405280600281526020017f333700000000000000000000000000000000000000000000000000000000000081525081565b6040518060400160405280600281526020017f363100000000000000000000000000000000000000000000000000000000000081525081565b6040518060400160405280600281526020017f343500000000000000000000000000000000000000000000000000000000000081525081565b6040518060400160405280600281526020017f373900000000000000000000000000000000000000000000000000000000000081525081565b6040518060400160405280600281526020017f373600000000000000000000000000000000000000000000000000000000000081525081565b6040518060400160405280600281526020017f363600000000000000000000000000000000000000000000000000000000000081525081565b6040518060400160405280600281526020017f363400000000000000000000000000000000000000000000000000000000000081525081565b6040518060400160405280600281526020017f343100000000000000000000000000000000000000000000000000000000000081525081565b6040518060400160405280600181526020017f330000000000000000000000000000000000000000000000000000000000000081525081565b6040518060400160405280600281526020017f373300000000000000000000000000000000000000000000000000000000000081525081565b6040518060400160405280600281526020017f313600000000000000000000000000000000000000000000000000000000000081525081565b6040518060400160405280600281526020017f333600000000000000000000000000000000000000000000000000000000000081525081565b6040518060400160405280600281526020017f323000000000000000000000000000000000000000000000000000000000000081525081565b6040518060400160405280600281526020017f353900000000000000000000000000000000000000000000000000000000000081525081565b6040518060400160405280600281526020017f353700000000000000000000000000000000000000000000000000000000000081525081565b6040518060400160405280600281526020017f343700000000000000000000000000000000000000000000000000000000000081525081565b6040518060400160405280600281526020017f363300000000000000000000000000000000000000000000000000000000000081525081565b6040518060400160405280600281526020017f333500000000000000000000000000000000000000000000000000000000000081525081565b6040518060400160405280600281526020017f353300000000000000000000000000000000000000000000000000000000000081525081565b6040518060400160405280600181526020017f360000000000000000000000000000000000000000000000000000000000000081525081565b6040518060400160405280600281526020017f363200000000000000000000000000000000000000000000000000000000000081525081565b6040518060400160405280600281526020017f343200000000000000000000000000000000000000000000000000000000000081525081565b6040518060400160405280600281526020017f33320000000000000000000000000000000000000000000000000000000000008152508156fea2646970667358221220cefe08e997ac28fa3c3b64c6985d643d36f62294e07d6eb705f956696c5df35a64736f6c634300060c0033",
  "immutableReferences": {},
  "source": "// SPDX-License-Identifier: agpl-3.0\npragma solidity 0.6.12;\n\n/**\n * @title Errors library\n * @author Aave\n * @notice Defines the error messages emitted by the different contracts of the Aave protocol\n * @dev Error messages prefix glossary:\n *  - VL = ValidationLogic\n *  - MATH = Math libraries\n *  - CT = Common errors between tokens (AToken, VariableDebtToken and StableDebtToken)\n *  - AT = AToken\n *  - SDT = StableDebtToken\n *  - VDT = VariableDebtToken\n *  - LP = LendingPool\n *  - LPAPR = LendingPoolAddressesProviderRegistry\n *  - LPC = LendingPoolConfiguration\n *  - RL = ReserveLogic\n *  - LPCM = LendingPoolCollateralManager\n *  - P = Pausable\n */\nlibrary Errors {\n  //common errors\n  string public constant CALLER_NOT_POOL_ADMIN = '33'; // 'The caller must be the pool admin'\n  string public constant BORROW_ALLOWANCE_NOT_ENOUGH = '59'; // User borrows on behalf, but allowance are too small\n\n  //contract specific errors\n  string public constant VL_INVALID_AMOUNT = '1'; // 'Amount must be greater than 0'\n  string public constant VL_NO_ACTIVE_RESERVE = '2'; // 'Action requires an active reserve'\n  string public constant VL_RESERVE_FROZEN = '3'; // 'Action cannot be performed because the reserve is frozen'\n  string public constant VL_CURRENT_AVAILABLE_LIQUIDITY_NOT_ENOUGH = '4'; // 'The current liquidity is not enough'\n  string public constant VL_NOT_ENOUGH_AVAILABLE_USER_BALANCE = '5'; // 'User cannot withdraw more than the available balance'\n  string public constant VL_TRANSFER_NOT_ALLOWED = '6'; // 'Transfer cannot be allowed.'\n  string public constant VL_BORROWING_NOT_ENABLED = '7'; // 'Borrowing is not enabled'\n  string public constant VL_INVALID_INTEREST_RATE_MODE_SELECTED = '8'; // 'Invalid interest rate mode selected'\n  string public constant VL_COLLATERAL_BALANCE_IS_0 = '9'; // 'The collateral balance is 0'\n  string public constant VL_HEALTH_FACTOR_LOWER_THAN_LIQUIDATION_THRESHOLD = '10'; // 'Health factor is lesser than the liquidation threshold'\n  string public constant VL_COLLATERAL_CANNOT_COVER_NEW_BORROW = '11'; // 'There is not enough collateral to cover a new borrow'\n  string public constant VL_STABLE_BORROWING_NOT_ENABLED = '12'; // stable borrowing not enabled\n  string public constant VL_COLLATERAL_SAME_AS_BORROWING_CURRENCY = '13'; // collateral is (mostly) the same currency that is being borrowed\n  string public constant VL_AMOUNT_BIGGER_THAN_MAX_LOAN_SIZE_STABLE = '14'; // 'The requested amount is greater than the max loan size in stable rate mode\n  string public constant VL_NO_DEBT_OF_SELECTED_TYPE = '15'; // 'for repayment of stable debt, the user needs to have stable debt, otherwise, he needs to have variable debt'\n  string public constant VL_NO_EXPLICIT_AMOUNT_TO_REPAY_ON_BEHALF = '16'; // 'To repay on behalf of an user an explicit amount to repay is needed'\n  string public constant VL_NO_STABLE_RATE_LOAN_IN_RESERVE = '17'; // 'User does not have a stable rate loan in progress on this reserve'\n  string public constant VL_NO_VARIABLE_RATE_LOAN_IN_RESERVE = '18'; // 'User does not have a variable rate loan in progress on this reserve'\n  string public constant VL_UNDERLYING_BALANCE_NOT_GREATER_THAN_0 = '19'; // 'The underlying balance needs to be greater than 0'\n  string public constant VL_DEPOSIT_ALREADY_IN_USE = '20'; // 'User deposit is already being used as collateral'\n  string public constant LP_NOT_ENOUGH_STABLE_BORROW_BALANCE = '21'; // 'User does not have any stable rate loan for this reserve'\n  string public constant LP_INTEREST_RATE_REBALANCE_CONDITIONS_NOT_MET = '22'; // 'Interest rate rebalance conditions were not met'\n  string public constant LP_LIQUIDATION_CALL_FAILED = '23'; // 'Liquidation call failed'\n  string public constant LP_NOT_ENOUGH_LIQUIDITY_TO_BORROW = '24'; // 'There is not enough liquidity available to borrow'\n  string public constant LP_REQUESTED_AMOUNT_TOO_SMALL = '25'; // 'The requested amount is too small for a FlashLoan.'\n  string public constant LP_INCONSISTENT_PROTOCOL_ACTUAL_BALANCE = '26'; // 'The actual balance of the protocol is inconsistent'\n  string public constant LP_CALLER_NOT_LENDING_POOL_CONFIGURATOR = '27'; // 'The caller of the function is not the lending pool configurator'\n  string public constant LP_INCONSISTENT_FLASHLOAN_PARAMS = '28';\n  string public constant CT_CALLER_MUST_BE_LENDING_POOL = '29'; // 'The caller of this function must be a lending pool'\n  string public constant CT_CANNOT_GIVE_ALLOWANCE_TO_HIMSELF = '30'; // 'User cannot give allowance to himself'\n  string public constant CT_TRANSFER_AMOUNT_NOT_GT_0 = '31'; // 'Transferred amount needs to be greater than zero'\n  string public constant RL_RESERVE_ALREADY_INITIALIZED = '32'; // 'Reserve has already been initialized'\n  string public constant LPC_RESERVE_LIQUIDITY_NOT_0 = '34'; // 'The liquidity of the reserve needs to be 0'\n  string public constant LPC_INVALID_ATOKEN_POOL_ADDRESS = '35'; // 'The liquidity of the reserve needs to be 0'\n  string public constant LPC_INVALID_STABLE_DEBT_TOKEN_POOL_ADDRESS = '36'; // 'The liquidity of the reserve needs to be 0'\n  string public constant LPC_INVALID_VARIABLE_DEBT_TOKEN_POOL_ADDRESS = '37'; // 'The liquidity of the reserve needs to be 0'\n  string public constant LPC_INVALID_STABLE_DEBT_TOKEN_UNDERLYING_ADDRESS = '38'; // 'The liquidity of the reserve needs to be 0'\n  string public constant LPC_INVALID_VARIABLE_DEBT_TOKEN_UNDERLYING_ADDRESS = '39'; // 'The liquidity of the reserve needs to be 0'\n  string public constant LPC_INVALID_ADDRESSES_PROVIDER_ID = '40'; // 'The liquidity of the reserve needs to be 0'\n  string public constant LPC_INVALID_CONFIGURATION = '75'; // 'Invalid risk parameters for the reserve'\n  string public constant LPC_CALLER_NOT_EMERGENCY_ADMIN = '76'; // 'The caller must be the emergency admin'\n  string public constant LPAPR_PROVIDER_NOT_REGISTERED = '41'; // 'Provider is not registered'\n  string public constant LPCM_HEALTH_FACTOR_NOT_BELOW_THRESHOLD = '42'; // 'Health factor is not below the threshold'\n  string public constant LPCM_COLLATERAL_CANNOT_BE_LIQUIDATED = '43'; // 'The collateral chosen cannot be liquidated'\n  string public constant LPCM_SPECIFIED_CURRENCY_NOT_BORROWED_BY_USER = '44'; // 'User did not borrow the specified currency'\n  string public constant LPCM_NOT_ENOUGH_LIQUIDITY_TO_LIQUIDATE = '45'; // \"There isn't enough liquidity available to liquidate\"\n  string public constant LPCM_NO_ERRORS = '46'; // 'No errors'\n  string public constant LP_INVALID_FLASHLOAN_MODE = '47'; //Invalid flashloan mode selected\n  string public constant MATH_MULTIPLICATION_OVERFLOW = '48';\n  string public constant MATH_ADDITION_OVERFLOW = '49';\n  string public constant MATH_DIVISION_BY_ZERO = '50';\n  string public constant RL_LIQUIDITY_INDEX_OVERFLOW = '51'; //  Liquidity index overflows uint128\n  string public constant RL_VARIABLE_BORROW_INDEX_OVERFLOW = '52'; //  Variable borrow index overflows uint128\n  string public constant RL_LIQUIDITY_RATE_OVERFLOW = '53'; //  Liquidity rate overflows uint128\n  string public constant RL_VARIABLE_BORROW_RATE_OVERFLOW = '54'; //  Variable borrow rate overflows uint128\n  string public constant RL_STABLE_BORROW_RATE_OVERFLOW = '55'; //  Stable borrow rate overflows uint128\n  string public constant CT_INVALID_MINT_AMOUNT = '56'; //invalid amount to mint\n  string public constant LP_FAILED_REPAY_WITH_COLLATERAL = '57';\n  string public constant CT_INVALID_BURN_AMOUNT = '58'; //invalid amount to burn\n  string public constant LP_FAILED_COLLATERAL_SWAP = '60';\n  string public constant LP_INVALID_EQUAL_ASSETS_TO_SWAP = '61';\n  string public constant LP_REENTRANCY_NOT_ALLOWED = '62';\n  string public constant LP_CALLER_MUST_BE_AN_ATOKEN = '63';\n  string public constant LP_IS_PAUSED = '64'; // 'Pool is paused'\n  string public constant LP_NO_MORE_RESERVES_ALLOWED = '65';\n  string public constant LP_INVALID_FLASH_LOAN_EXECUTOR_RETURN = '66';\n  string public constant RC_INVALID_LTV = '67';\n  string public constant RC_INVALID_LIQ_THRESHOLD = '68';\n  string public constant RC_INVALID_LIQ_BONUS = '69';\n  string public constant RC_INVALID_DECIMALS = '70';\n  string public constant RC_INVALID_RESERVE_FACTOR = '71';\n  string public constant LPAPR_INVALID_ADDRESSES_PROVIDER_ID = '72';\n  string public constant VL_INCONSISTENT_FLASHLOAN_PARAMS = '73';\n  string public constant LP_INCONSISTENT_PARAMS_LENGTH = '74';\n  string public constant UL_INVALID_INDEX = '77';\n  string public constant LP_NOT_CONTRACT = '78';\n  string public constant SDT_STABLE_DEBT_OVERFLOW = '79';\n  string public constant SDT_BURN_EXCEEDS_BALANCE = '80';\n\n  enum CollateralManagerErrors {\n    NO_ERROR,\n    NO_COLLATERAL_AVAILABLE,\n    COLLATERAL_CANNOT_BE_LIQUIDATED,\n    CURRRENCY_NOT_BORROWED,\n    HEALTH_FACTOR_ABOVE_THRESHOLD,\n    NOT_ENOUGH_LIQUIDITY,\n    NO_ACTIVE_RESERVE,\n    HEALTH_FACTOR_LOWER_THAN_LIQUIDATION_THRESHOLD,\n    INVALID_EQUAL_ASSETS_TO_SWAP,\n    FROZEN_RESERVE\n  }\n}\n",
  "sourcePath": "@aave/protocol-v2/contracts/protocol/libraries/helpers/Errors.sol",
  "compiler": {
    "name": "solc",
    "version": "0.6.12+commit.27d51765.Emscripten.clang"
  },
  "schemaVersion": "3.4.4",
  "updatedAt": "2022-01-15T23:49:50.061Z",
  "devdoc": {
    "author": "Aave",
    "details": "Error messages prefix glossary:  - VL = ValidationLogic  - MATH = Math libraries  - CT = Common errors between tokens (AToken, VariableDebtToken and StableDebtToken)  - AT = AToken  - SDT = StableDebtToken  - VDT = VariableDebtToken  - LP = LendingPool  - LPAPR = LendingPoolAddressesProviderRegistry  - LPC = LendingPoolConfiguration  - RL = ReserveLogic  - LPCM = LendingPoolCollateralManager  - P = Pausable",
    "kind": "dev",
    "methods": {},
    "title": "Errors library",
    "version": 1
  },
  "userdoc": {
    "kind": "user",
    "methods": {},
    "notice": "Defines the error messages emitted by the different contracts of the Aave protocol",
    "version": 1
  }
}