{
  "contractName": "WETHGateway",
  "abi": [
    {
      "inputs": [
        {
          "internalType": "address",
          "name": "weth",
          "type": "address"
        },
        {
          "internalType": "address",
          "name": "pool",
          "type": "address"
        }
      ],
      "stateMutability": "nonpayable",
      "type": "constructor"
    },
    {
      "anonymous": false,
      "inputs": [
        {
          "indexed": true,
          "internalType": "address",
          "name": "previousOwner",
          "type": "address"
        },
        {
          "indexed": true,
          "internalType": "address",
          "name": "newOwner",
          "type": "address"
        }
      ],
      "name": "OwnershipTransferred",
      "type": "event"
    },
    {
      "stateMutability": "payable",
      "type": "fallback"
    },
    {
      "inputs": [],
      "name": "owner",
      "outputs": [
        {
          "internalType": "address",
          "name": "",
          "type": "address"
        }
      ],
      "stateMutability": "view",
      "type": "function"
    },
    {
      "inputs": [],
      "name": "renounceOwnership",
      "outputs": [],
      "stateMutability": "nonpayable",
      "type": "function"
    },
    {
      "inputs": [
        {
          "internalType": "address",
          "name": "newOwner",
          "type": "address"
        }
      ],
      "name": "transferOwnership",
      "outputs": [],
      "stateMutability": "nonpayable",
      "type": "function"
    },
    {
      "stateMutability": "payable",
      "type": "receive"
    },
    {
      "inputs": [
        {
          "internalType": "address",
          "name": "onBehalfOf",
          "type": "address"
        },
        {
          "internalType": "uint16",
          "name": "referralCode",
          "type": "uint16"
        }
      ],
      "name": "depositETH",
      "outputs": [],
      "stateMutability": "payable",
      "type": "function"
    },
    {
      "inputs": [
        {
          "internalType": "uint256",
          "name": "amount",
          "type": "uint256"
        },
        {
          "internalType": "address",
          "name": "to",
          "type": "address"
        }
      ],
      "name": "withdrawETH",
      "outputs": [],
      "stateMutability": "nonpayable",
      "type": "function"
    },
    {
      "inputs": [
        {
          "internalType": "uint256",
          "name": "amount",
          "type": "uint256"
        },
        {
          "internalType": "uint256",
          "name": "rateMode",
          "type": "uint256"
        },
        {
          "internalType": "address",
          "name": "onBehalfOf",
          "type": "address"
        }
      ],
      "name": "repayETH",
      "outputs": [],
      "stateMutability": "payable",
      "type": "function"
    },
    {
      "inputs": [
        {
          "internalType": "uint256",
          "name": "amount",
          "type": "uint256"
        },
        {
          "internalType": "uint256",
          "name": "interesRateMode",
          "type": "uint256"
        },
        {
          "internalType": "uint16",
          "name": "referralCode",
          "type": "uint16"
        }
      ],
      "name": "borrowETH",
      "outputs": [],
      "stateMutability": "nonpayable",
      "type": "function"
    },
    {
      "inputs": [
        {
          "internalType": "address",
          "name": "token",
          "type": "address"
        },
        {
          "internalType": "address",
          "name": "to",
          "type": "address"
        },
        {
          "internalType": "uint256",
          "name": "amount",
          "type": "uint256"
        }
      ],
      "name": "emergencyTokenTransfer",
      "outputs": [],
      "stateMutability": "nonpayable",
      "type": "function"
    },
    {
      "inputs": [
        {
          "internalType": "address",
          "name": "to",
          "type": "address"
        },
        {
          "internalType": "uint256",
          "name": "amount",
          "type": "uint256"
        }
      ],
      "name": "emergencyEtherTransfer",
      "outputs": [],
      "stateMutability": "nonpayable",
      "type": "function"
    },
    {
      "inputs": [],
      "name": "getWETHAddress",
      "outputs": [
        {
          "internalType": "address",
          "name": "",
          "type": "address"
        }
      ],
      "stateMutability": "view",
      "type": "function"
    },
    {
      "inputs": [],
      "name": "getAWETHAddress",
      "outputs": [
        {
          "internalType": "address",
          "name": "",
          "type": "address"
        }
      ],
      "stateMutability": "view",
      "type": "function"
    },
    {
      "inputs": [],
      "name": "getLendingPoolAddress",
      "outputs": [
        {
          "internalType": "address",
          "name": "",
          "type": "address"
        }
      ],
      "stateMutability": "view",
      "type": "function"
    }
  ],
  "bytecode": "0x60e06040523480156200001157600080fd5b5060405162002657380380620026578339818101604052810190620000379190620004e9565b600062000049620002e160201b60201c565b9050806000806101000a81548173ffffffffffffffffffffffffffffffffffffffff021916908373ffffffffffffffffffffffffffffffffffffffff1602179055508073ffffffffffffffffffffffffffffffffffffffff16600073ffffffffffffffffffffffffffffffffffffffff167f8be0079c531659141344cd1fd0a4f28419497f9722a3daafe3b4186f6b6457e060405160405180910390a35060008190508273ffffffffffffffffffffffffffffffffffffffff1660808173ffffffffffffffffffffffffffffffffffffffff1660601b815250508073ffffffffffffffffffffffffffffffffffffffff1660a08173ffffffffffffffffffffffffffffffffffffffff1660601b815250508073ffffffffffffffffffffffffffffffffffffffff166335ea6a75846040518263ffffffff1660e01b8152600401620001959190620005a5565b6101806040518083038186803b158015620001af57600080fd5b505afa158015620001c4573d6000803e3d6000fd5b505050506040513d601f19601f82011682018060405250810190620001ea919062000556565b60e0015173ffffffffffffffffffffffffffffffffffffffff1660c08173ffffffffffffffffffffffffffffffffffffffff1660601b815250508273ffffffffffffffffffffffffffffffffffffffff1663095ea7b3837fffffffffffffffffffffffffffffffffffffffffffffffffffffffffffffffff6040518363ffffffff1660e01b815260040162000281929190620005c2565b602060405180830381600087803b1580156200029c57600080fd5b505af1158015620002b1573d6000803e3d6000fd5b505050506040513d601f19601f82011682018060405250810190620002d791906200052a565b505050506200073d565b600033905090565b600081519050620002fa81620006a1565b92915050565b6000815190506200031181620006bb565b92915050565b6000602082840312156200032a57600080fd5b620003366020620005ef565b905060006200034884828501620004a4565b60008301525092915050565b600061018082840312156200036857600080fd5b62000375610180620005ef565b90506000620003878482850162000317565b60008301525060206200039d848285016200048d565b6020830152506040620003b3848285016200048d565b6040830152506060620003c9848285016200048d565b6060830152506080620003df848285016200048d565b60808301525060a0620003f5848285016200048d565b60a08301525060c06200040b84828501620004bb565b60c08301525060e06200042184828501620002e9565b60e0830152506101006200043884828501620002e9565b610100830152506101206200045084828501620002e9565b610120830152506101406200046884828501620002e9565b610140830152506101606200048084828501620004d2565b6101608301525092915050565b6000815190506200049e81620006d5565b92915050565b600081519050620004b581620006ef565b92915050565b600081519050620004cc8162000709565b92915050565b600081519050620004e38162000723565b92915050565b60008060408385031215620004fd57600080fd5b60006200050d85828601620002e9565b92505060206200052085828601620002e9565b9150509250929050565b6000602082840312156200053d57600080fd5b60006200054d8482850162000300565b91505092915050565b600061018082840312156200056a57600080fd5b60006200057a8482850162000354565b91505092915050565b6200058e816200061d565b82525050565b6200059f8162000679565b82525050565b6000602082019050620005bc600083018462000583565b92915050565b6000604082019050620005d9600083018562000583565b620005e8602083018462000594565b9392505050565b6000604051905081810181811067ffffffffffffffff821117156200061357600080fd5b8060405250919050565b60006200062a8262000659565b9050919050565b60008115159050919050565b60006fffffffffffffffffffffffffffffffff82169050919050565b600073ffffffffffffffffffffffffffffffffffffffff82169050919050565b6000819050919050565b600064ffffffffff82169050919050565b600060ff82169050919050565b620006ac816200061d565b8114620006b857600080fd5b50565b620006c68162000631565b8114620006d257600080fd5b50565b620006e0816200063d565b8114620006ec57600080fd5b50565b620006fa8162000679565b81146200070657600080fd5b50565b620007148162000683565b81146200072057600080fd5b50565b6200072e8162000694565b81146200073a57600080fd5b50565b60805160601c60a05160601c60c05160601c611e90620007c760003980610347528061042352806106405250806104d352806106e7528061079e52806109175280610e49528061102152508060b2528061050f52806105a352806106665280610723528061095352806109ca5280610bb75280610e855280610fa0528061105d5250611e906000f3fe6080604052600436106100ab5760003560e01c80638da5cb5b116100645780638da5cb5b14610256578063a3d5b25514610281578063affa8817146102aa578063eed88b8d146102d5578063f2fde38b146102fe578063f538ba511461032757610140565b806336118b521461017b5780633a21afac146101a457806358c22be7146101cf5780635f36a742146101eb578063715018a6146102165780637d5155fd1461022d57610140565b36610140577f000000000000000000000000000000000000000000000000000000000000000073ffffffffffffffffffffffffffffffffffffffff163373ffffffffffffffffffffffffffffffffffffffff161461013e576040517f08c379a000000000000000000000000000000000000000000000000000000000815260040161013590611bd1565b60405180910390fd5b005b6040517f08c379a000000000000000000000000000000000000000000000000000000000815260040161017290611b91565b60405180910390fd5b34801561018757600080fd5b506101a2600480360381019061019d91906116bd565b610343565b005b3480156101b057600080fd5b506101b961063c565b6040516101c691906119e7565b60405180910390f35b6101e960048036038101906101e491906115c9565b610664565b005b3480156101f757600080fd5b5061020061079a565b60405161020d91906119e7565b60405180910390f35b34801561022257600080fd5b5061022b6107c2565b005b34801561023957600080fd5b50610254600480360381019061024f9190611748565b610915565b005b34801561026257600080fd5b5061026b610a62565b60405161027891906119e7565b60405180910390f35b34801561028d57600080fd5b506102a860048036038101906102a3919061157a565b610a8b565b005b3480156102b657600080fd5b506102bf610bb3565b6040516102cc91906119e7565b60405180910390f35b3480156102e157600080fd5b506102fc60048036038101906102f79190611605565b610bdb565b005b34801561030a57600080fd5b5061032560048036038101906103209190611551565b610c7e565b005b610341600480360381019061033c91906116f9565b610e40565b005b60007f000000000000000000000000000000000000000000000000000000000000000073ffffffffffffffffffffffffffffffffffffffff166370a08231336040518263ffffffff1660e01b815260040161039e9190611a02565b60206040518083038186803b1580156103b657600080fd5b505afa1580156103ca573d6000803e3d6000fd5b505050506040513d601f19601f820116820180604052508101906103ee9190611694565b905060008390507fffffffffffffffffffffffffffffffffffffffffffffffffffffffffffffffff841415610421578190505b7f000000000000000000000000000000000000000000000000000000000000000073ffffffffffffffffffffffffffffffffffffffff166323b872dd3330846040518463ffffffff1660e01b815260040161047e93929190611a1d565b602060405180830381600087803b15801561049857600080fd5b505af11580156104ac573d6000803e3d6000fd5b505050506040513d601f19601f820116820180604052508101906104d09190611641565b507f000000000000000000000000000000000000000000000000000000000000000073ffffffffffffffffffffffffffffffffffffffff166369328dec7f000000000000000000000000000000000000000000000000000000000000000083306040518463ffffffff1660e01b815260040161054e93929190611a7d565b602060405180830381600087803b15801561056857600080fd5b505af115801561057c573d6000803e3d6000fd5b505050506040513d601f19601f820116820180604052508101906105a09190611694565b507f000000000000000000000000000000000000000000000000000000000000000073ffffffffffffffffffffffffffffffffffffffff16632e1a7d4d826040518263ffffffff1660e01b81526004016105fa9190611c51565b600060405180830381600087803b15801561061457600080fd5b505af1158015610628573d6000803e3d6000fd5b50505050610636838261110e565b50505050565b60007f0000000000000000000000000000000000000000000000000000000000000000905090565b7f000000000000000000000000000000000000000000000000000000000000000073ffffffffffffffffffffffffffffffffffffffff1663d0e30db0346040518263ffffffff1660e01b81526004016000604051808303818588803b1580156106cc57600080fd5b505af11580156106e0573d6000803e3d6000fd5b50505050507f000000000000000000000000000000000000000000000000000000000000000073ffffffffffffffffffffffffffffffffffffffff1663e8eda9df7f00000000000000000000000000000000000000000000000000000000000000003485856040518563ffffffff1660e01b81526004016107649493929190611ab4565b600060405180830381600087803b15801561077e57600080fd5b505af1158015610792573d6000803e3d6000fd5b505050505050565b60007f0000000000000000000000000000000000000000000000000000000000000000905090565b6107ca61120c565b73ffffffffffffffffffffffffffffffffffffffff1660008054906101000a900473ffffffffffffffffffffffffffffffffffffffff1673ffffffffffffffffffffffffffffffffffffffff1614610857576040517f08c379a000000000000000000000000000000000000000000000000000000000815260040161084e90611bf1565b60405180910390fd5b600073ffffffffffffffffffffffffffffffffffffffff1660008054906101000a900473ffffffffffffffffffffffffffffffffffffffff1673ffffffffffffffffffffffffffffffffffffffff167f8be0079c531659141344cd1fd0a4f28419497f9722a3daafe3b4186f6b6457e060405160405180910390a360008060006101000a81548173ffffffffffffffffffffffffffffffffffffffff021916908373ffffffffffffffffffffffffffffffffffffffff160217905550565b7f000000000000000000000000000000000000000000000000000000000000000073ffffffffffffffffffffffffffffffffffffffff1663a415bcad7f0000000000000000000000000000000000000000000000000000000000000000858585336040518663ffffffff1660e01b8152600401610996959493929190611b3e565b600060405180830381600087803b1580156109b057600080fd5b505af11580156109c4573d6000803e3d6000fd5b505050507f000000000000000000000000000000000000000000000000000000000000000073ffffffffffffffffffffffffffffffffffffffff16632e1a7d4d846040518263ffffffff1660e01b8152600401610a219190611c51565b600060405180830381600087803b158015610a3b57600080fd5b505af1158015610a4f573d6000803e3d6000fd5b50505050610a5d338461110e565b505050565b60008060009054906101000a900473ffffffffffffffffffffffffffffffffffffffff16905090565b610a9361120c565b73ffffffffffffffffffffffffffffffffffffffff1660008054906101000a900473ffffffffffffffffffffffffffffffffffffffff1673ffffffffffffffffffffffffffffffffffffffff1614610b20576040517f08c379a0000000000000000000000000000000000000000000000000000000008152600401610b1790611bf1565b60405180910390fd5b8273ffffffffffffffffffffffffffffffffffffffff1663a9059cbb83836040518363ffffffff1660e01b8152600401610b5b929190611a54565b602060405180830381600087803b158015610b7557600080fd5b505af1158015610b89573d6000803e3d6000fd5b505050506040513d601f19601f82011682018060405250810190610bad9190611641565b50505050565b60007f0000000000000000000000000000000000000000000000000000000000000000905090565b610be361120c565b73ffffffffffffffffffffffffffffffffffffffff1660008054906101000a900473ffffffffffffffffffffffffffffffffffffffff1673ffffffffffffffffffffffffffffffffffffffff1614610c70576040517f08c379a0000000000000000000000000000000000000000000000000000000008152600401610c6790611bf1565b60405180910390fd5b610c7a828261110e565b5050565b610c8661120c565b73ffffffffffffffffffffffffffffffffffffffff1660008054906101000a900473ffffffffffffffffffffffffffffffffffffffff1673ffffffffffffffffffffffffffffffffffffffff1614610d13576040517f08c379a0000000000000000000000000000000000000000000000000000000008152600401610d0a90611bf1565b60405180910390fd5b600073ffffffffffffffffffffffffffffffffffffffff168173ffffffffffffffffffffffffffffffffffffffff161415610d83576040517f08c379a0000000000000000000000000000000000000000000000000000000008152600401610d7a90611bb1565b60405180910390fd5b8073ffffffffffffffffffffffffffffffffffffffff1660008054906101000a900473ffffffffffffffffffffffffffffffffffffffff1673ffffffffffffffffffffffffffffffffffffffff167f8be0079c531659141344cd1fd0a4f28419497f9722a3daafe3b4186f6b6457e060405160405180910390a3806000806101000a81548173ffffffffffffffffffffffffffffffffffffffff021916908373ffffffffffffffffffffffffffffffffffffffff16021790555050565b600080610f16837f000000000000000000000000000000000000000000000000000000000000000073ffffffffffffffffffffffffffffffffffffffff166335ea6a757f00000000000000000000000000000000000000000000000000000000000000006040518263ffffffff1660e01b8152600401610ec091906119e7565b6101806040518083038186803b158015610ed957600080fd5b505afa158015610eed573d6000803e3d6000fd5b505050506040513d601f19601f82011682018060405250810190610f11919061166a565b611214565b91509150600060016002811115610f2957fe5b856002811115610f3557fe5b6002811115610f4057fe5b14610f4b5781610f4d565b825b905080861015610f5b578590505b80341015610f9e576040517f08c379a0000000000000000000000000000000000000000000000000000000008152600401610f9590611c31565b60405180910390fd5b7f000000000000000000000000000000000000000000000000000000000000000073ffffffffffffffffffffffffffffffffffffffff1663d0e30db0826040518263ffffffff1660e01b81526004016000604051808303818588803b15801561100657600080fd5b505af115801561101a573d6000803e3d6000fd5b50505050507f000000000000000000000000000000000000000000000000000000000000000073ffffffffffffffffffffffffffffffffffffffff1663573ade817f00000000000000000000000000000000000000000000000000000000000000003488886040518563ffffffff1660e01b815260040161109e9493929190611af9565b602060405180830381600087803b1580156110b857600080fd5b505af11580156110cc573d6000803e3d6000fd5b505050506040513d601f19601f820116820180604052508101906110f09190611694565b5080341115611106576111053382340361110e565b5b505050505050565b60008273ffffffffffffffffffffffffffffffffffffffff1682600067ffffffffffffffff8111801561114057600080fd5b506040519080825280601f01601f1916602001820160405280156111735781602001600182028036833780820191505090505b5060405161118191906119d0565b60006040518083038185875af1925050503d80600081146111be576040519150601f19603f3d011682016040523d82523d6000602084013e6111c3565b606091505b5050905080611207576040517f08c379a00000000000000000000000000000000000000000000000000000000081526004016111fe90611c11565b60405180910390fd5b505050565b600033905090565b60008082610100015173ffffffffffffffffffffffffffffffffffffffff166370a08231856040518263ffffffff1660e01b815260040161125591906119e7565b60206040518083038186803b15801561126d57600080fd5b505afa158015611281573d6000803e3d6000fd5b505050506040513d601f19601f820116820180604052508101906112a59190611694565b83610120015173ffffffffffffffffffffffffffffffffffffffff166370a08231866040518263ffffffff1660e01b81526004016112e391906119e7565b60206040518083038186803b1580156112fb57600080fd5b505afa15801561130f573d6000803e3d6000fd5b505050506040513d601f19601f820116820180604052508101906113339190611694565b915091509250929050565b60008135905061134d81611db9565b92915050565b60008151905061136281611db9565b92915050565b60008151905061137781611dd0565b92915050565b60006020828403121561138f57600080fd5b6113996020611c6c565b905060006113a984828501611512565b60008301525092915050565b600061018082840312156113c857600080fd5b6113d3610180611c6c565b905060006113e38482850161137d565b60008301525060206113f7848285016114d3565b602083015250604061140b848285016114d3565b604083015250606061141f848285016114d3565b6060830152506080611433848285016114d3565b60808301525060a0611447848285016114d3565b60a08301525060c061145b84828501611527565b60c08301525060e061146f84828501611353565b60e08301525061010061148484828501611353565b6101008301525061012061149a84828501611353565b610120830152506101406114b084828501611353565b610140830152506101606114c68482850161153c565b6101608301525092915050565b6000815190506114e281611de7565b92915050565b6000813590506114f781611dfe565b92915050565b60008135905061150c81611e15565b92915050565b60008151905061152181611e15565b92915050565b60008151905061153681611e2c565b92915050565b60008151905061154b81611e43565b92915050565b60006020828403121561156357600080fd5b60006115718482850161133e565b91505092915050565b60008060006060848603121561158f57600080fd5b600061159d8682870161133e565b93505060206115ae8682870161133e565b92505060406115bf868287016114fd565b9150509250925092565b600080604083850312156115dc57600080fd5b60006115ea8582860161133e565b92505060206115fb858286016114e8565b9150509250929050565b6000806040838503121561161857600080fd5b60006116268582860161133e565b9250506020611637858286016114fd565b9150509250929050565b60006020828403121561165357600080fd5b600061166184828501611368565b91505092915050565b6000610180828403121561167d57600080fd5b600061168b848285016113b5565b91505092915050565b6000602082840312156116a657600080fd5b60006116b484828501611512565b91505092915050565b600080604083850312156116d057600080fd5b60006116de858286016114fd565b92505060206116ef8582860161133e565b9150509250929050565b60008060006060848603121561170e57600080fd5b600061171c868287016114fd565b935050602061172d868287016114fd565b925050604061173e8682870161133e565b9150509250925092565b60008060006060848603121561175d57600080fd5b600061176b868287016114fd565b935050602061177c868287016114fd565b925050604061178d868287016114e8565b9150509250925092565b6117a081611d50565b82525050565b6117af81611cc0565b82525050565b60006117c082611c99565b6117ca8185611ca4565b93506117da818560208601611d86565b80840191505092915050565b60006117f3601483611caf565b91507f46616c6c6261636b206e6f7420616c6c6f7765640000000000000000000000006000830152602082019050919050565b6000611833602683611caf565b91507f4f776e61626c653a206e6577206f776e657220697320746865207a65726f206160008301527f64647265737300000000000000000000000000000000000000000000000000006020830152604082019050919050565b6000611899601383611caf565b91507f52656365697665206e6f7420616c6c6f776564000000000000000000000000006000830152602082019050919050565b60006118d9602083611caf565b91507f4f776e61626c653a2063616c6c6572206973206e6f7420746865206f776e65726000830152602082019050919050565b6000611919601383611caf565b91507f4554485f5452414e534645525f4641494c4544000000000000000000000000006000830152602082019050919050565b6000611959602783611caf565b91507f6d73672e76616c7565206973206c657373207468616e2072657061796d656e7460008301527f20616d6f756e74000000000000000000000000000000000000000000000000006020830152604082019050919050565b6119bb81611cfa565b82525050565b6119ca81611d28565b82525050565b60006119dc82846117b5565b915081905092915050565b60006020820190506119fc60008301846117a6565b92915050565b6000602082019050611a176000830184611797565b92915050565b6000606082019050611a326000830186611797565b611a3f6020830185611797565b611a4c60408301846119c1565b949350505050565b6000604082019050611a6960008301856117a6565b611a7660208301846119c1565b9392505050565b6000606082019050611a9260008301866117a6565b611a9f60208301856119c1565b611aac6040830184611797565b949350505050565b6000608082019050611ac960008301876117a6565b611ad660208301866119c1565b611ae360408301856117a6565b611af060608301846119b2565b95945050505050565b6000608082019050611b0e60008301876117a6565b611b1b60208301866119c1565b611b2860408301856119c1565b611b3560608301846117a6565b95945050505050565b600060a082019050611b5360008301886117a6565b611b6060208301876119c1565b611b6d60408301866119c1565b611b7a60608301856119b2565b611b876080830184611797565b9695505050505050565b60006020820190508181036000830152611baa816117e6565b9050919050565b60006020820190508181036000830152611bca81611826565b9050919050565b60006020820190508181036000830152611bea8161188c565b9050919050565b60006020820190508181036000830152611c0a816118cc565b9050919050565b60006020820190508181036000830152611c2a8161190c565b9050919050565b60006020820190508181036000830152611c4a8161194c565b9050919050565b6000602082019050611c6660008301846119c1565b92915050565b6000604051905081810181811067ffffffffffffffff82111715611c8f57600080fd5b8060405250919050565b600081519050919050565b600081905092915050565b600082825260208201905092915050565b6000611ccb82611d08565b9050919050565b60008115159050919050565b60006fffffffffffffffffffffffffffffffff82169050919050565b600061ffff82169050919050565b600073ffffffffffffffffffffffffffffffffffffffff82169050919050565b6000819050919050565b600064ffffffffff82169050919050565b600060ff82169050919050565b6000611d5b82611d62565b9050919050565b6000611d6d82611d74565b9050919050565b6000611d7f82611d08565b9050919050565b60005b83811015611da4578082015181840152602081019050611d89565b83811115611db3576000848401525b50505050565b611dc281611cc0565b8114611dcd57600080fd5b50565b611dd981611cd2565b8114611de457600080fd5b50565b611df081611cde565b8114611dfb57600080fd5b50565b611e0781611cfa565b8114611e1257600080fd5b50565b611e1e81611d28565b8114611e2957600080fd5b50565b611e3581611d32565b8114611e4057600080fd5b50565b611e4c81611d43565b8114611e5757600080fd5b5056fea264697066735822122087c18441cf9538d4fb209b16b3c45f52b4b3e4807c9c3b5919521276cae72a9e64736f6c634300060c0033",
  "immutableReferences": {
    "891": [
      {
        "length": 32,
        "start": 178
      },
      {
        "length": 32,
        "start": 1295
      },
      {
        "length": 32,
        "start": 1443
      },
      {
        "length": 32,
        "start": 1638
      },
      {
        "length": 32,
        "start": 1827
      },
      {
        "length": 32,
        "start": 2387
      },
      {
        "length": 32,
        "start": 2506
      },
      {
        "length": 32,
        "start": 2999
      },
      {
        "length": 32,
        "start": 3717
      },
      {
        "length": 32,
        "start": 4000
      },
      {
        "length": 32,
        "start": 4189
      }
    ],
    "893": [
      {
        "length": 32,
        "start": 1235
      },
      {
        "length": 32,
        "start": 1767
      },
      {
        "length": 32,
        "start": 1950
      },
      {
        "length": 32,
        "start": 2327
      },
      {
        "length": 32,
        "start": 3657
      },
      {
        "length": 32,
        "start": 4129
      }
    ],
    "895": [
      {
        "length": 32,
        "start": 839
      },
      {
        "length": 32,
        "start": 1059
      },
      {
        "length": 32,
        "start": 1600
      }
    ]
  },
  "source": "// SPDX-License-Identifier: agpl-3.0\npragma solidity 0.6.12;\npragma experimental ABIEncoderV2;\n\nimport {Ownable} from '../dependencies/openzeppelin/contracts/Ownable.sol';\nimport {IERC20} from '../dependencies/openzeppelin/contracts/IERC20.sol';\nimport {IWETH} from './interfaces/IWETH.sol';\nimport {IWETHGateway} from './interfaces/IWETHGateway.sol';\nimport {ILendingPool} from '../interfaces/ILendingPool.sol';\nimport {IAToken} from '../interfaces/IAToken.sol';\nimport {ReserveConfiguration} from '../protocol/libraries/configuration/ReserveConfiguration.sol';\nimport {UserConfiguration} from '../protocol/libraries/configuration/UserConfiguration.sol';\nimport {Helpers} from '../protocol/libraries/helpers/Helpers.sol';\nimport {DataTypes} from '../protocol/libraries/types/DataTypes.sol';\n\ncontract WETHGateway is IWETHGateway, Ownable {\n  using ReserveConfiguration for DataTypes.ReserveConfigurationMap;\n  using UserConfiguration for DataTypes.UserConfigurationMap;\n\n  IWETH internal immutable WETH;\n  ILendingPool internal immutable POOL;\n  IAToken internal immutable aWETH;\n\n  /**\n   * @dev Sets the WETH address and the LendingPoolAddressesProvider address. Infinite approves lending pool.\n   * @param weth Address of the Wrapped Ether contract\n   * @param pool Address of the LendingPool contract\n   **/\n  constructor(address weth, address pool) public {\n    ILendingPool poolInstance = ILendingPool(pool);\n    WETH = IWETH(weth);\n    POOL = poolInstance;\n    aWETH = IAToken(poolInstance.getReserveData(weth).aTokenAddress);\n    IWETH(weth).approve(pool, uint256(-1));\n  }\n\n  /**\n   * @dev deposits WETH into the reserve, using native ETH. A corresponding amount of the overlying asset (aTokens)\n   * is minted.\n   * @param onBehalfOf address of the user who will receive the aTokens representing the deposit\n   * @param referralCode integrators are assigned a referral code and can potentially receive rewards.\n   **/\n  function depositETH(address onBehalfOf, uint16 referralCode) external payable override {\n    WETH.deposit{value: msg.value}();\n    POOL.deposit(address(WETH), msg.value, onBehalfOf, referralCode);\n  }\n\n  /**\n   * @dev withdraws the WETH _reserves of msg.sender.\n   * @param amount amount of aWETH to withdraw and receive native ETH\n   * @param to address of the user who will receive native ETH\n   */\n  function withdrawETH(uint256 amount, address to) external override {\n    uint256 userBalance = aWETH.balanceOf(msg.sender);\n    uint256 amountToWithdraw = amount;\n\n    // if amount is equal to uint(-1), the user wants to redeem everything\n    if (amount == type(uint256).max) {\n      amountToWithdraw = userBalance;\n    }\n    aWETH.transferFrom(msg.sender, address(this), amountToWithdraw);\n    POOL.withdraw(address(WETH), amountToWithdraw, address(this));\n    WETH.withdraw(amountToWithdraw);\n    _safeTransferETH(to, amountToWithdraw);\n  }\n\n  /**\n   * @dev repays a borrow on the WETH reserve, for the specified amount (or for the whole amount, if uint256(-1) is specified).\n   * @param amount the amount to repay, or uint256(-1) if the user wants to repay everything\n   * @param rateMode the rate mode to repay\n   * @param onBehalfOf the address for which msg.sender is repaying\n   */\n  function repayETH(\n    uint256 amount,\n    uint256 rateMode,\n    address onBehalfOf\n  ) external payable override {\n    (uint256 stableDebt, uint256 variableDebt) =\n      Helpers.getUserCurrentDebtMemory(onBehalfOf, POOL.getReserveData(address(WETH)));\n\n    uint256 paybackAmount =\n      DataTypes.InterestRateMode(rateMode) == DataTypes.InterestRateMode.STABLE\n        ? stableDebt\n        : variableDebt;\n\n    if (amount < paybackAmount) {\n      paybackAmount = amount;\n    }\n    require(msg.value >= paybackAmount, 'msg.value is less than repayment amount');\n    WETH.deposit{value: paybackAmount}();\n    POOL.repay(address(WETH), msg.value, rateMode, onBehalfOf);\n\n    // refund remaining dust eth\n    if (msg.value > paybackAmount) _safeTransferETH(msg.sender, msg.value - paybackAmount);\n  }\n\n  /**\n   * @dev borrow WETH, unwraps to ETH and send both the ETH and DebtTokens to msg.sender, via `approveDelegation` and onBehalf argument in `LendingPool.borrow`.\n   * @param amount the amount of ETH to borrow\n   * @param interesRateMode the interest rate mode\n   * @param referralCode integrators are assigned a referral code and can potentially receive rewards\n   */\n  function borrowETH(\n    uint256 amount,\n    uint256 interesRateMode,\n    uint16 referralCode\n  ) external override {\n    POOL.borrow(address(WETH), amount, interesRateMode, referralCode, msg.sender);\n    WETH.withdraw(amount);\n    _safeTransferETH(msg.sender, amount);\n  }\n\n  /**\n   * @dev transfer ETH to an address, revert if it fails.\n   * @param to recipient of the transfer\n   * @param value the amount to send\n   */\n  function _safeTransferETH(address to, uint256 value) internal {\n    (bool success, ) = to.call{value: value}(new bytes(0));\n    require(success, 'ETH_TRANSFER_FAILED');\n  }\n\n  /**\n   * @dev transfer ERC20 from the utility contract, for ERC20 recovery in case of stuck tokens due\n   * direct transfers to the contract address.\n   * @param token token to transfer\n   * @param to recipient of the transfer\n   * @param amount amount to send\n   */\n  function emergencyTokenTransfer(\n    address token,\n    address to,\n    uint256 amount\n  ) external onlyOwner {\n    IERC20(token).transfer(to, amount);\n  }\n\n  /**\n   * @dev transfer native Ether from the utility contract, for native Ether recovery in case of stuck Ether\n   * due selfdestructs or transfer ether to pre-computated contract address before deployment.\n   * @param to recipient of the transfer\n   * @param amount amount to send\n   */\n  function emergencyEtherTransfer(address to, uint256 amount) external onlyOwner {\n    _safeTransferETH(to, amount);\n  }\n\n  /**\n   * @dev Get WETH address used by WETHGateway\n   */\n  function getWETHAddress() external view returns (address) {\n    return address(WETH);\n  }\n\n  /**\n   * @dev Get aWETH address used by WETHGateway\n   */\n  function getAWETHAddress() external view returns (address) {\n    return address(aWETH);\n  }\n\n  /**\n   * @dev Get LendingPool address used by WETHGateway\n   */\n  function getLendingPoolAddress() external view returns (address) {\n    return address(POOL);\n  }\n\n  /**\n   * @dev Only WETH contract is allowed to transfer ETH here. Prevent other addresses to send Ether to this contract.\n   */\n  receive() external payable {\n    require(msg.sender == address(WETH), 'Receive not allowed');\n  }\n\n  /**\n   * @dev Revert fallback calls\n   */\n  fallback() external payable {\n    revert('Fallback not allowed');\n  }\n}\n",
  "sourcePath": "@aave/protocol-v2/contracts/misc/WETHGateway.sol",
  "compiler": {
    "name": "solc",
    "version": "0.6.12+commit.27d51765.Emscripten.clang"
  },
  "schemaVersion": "3.4.4",
  "updatedAt": "2022-01-15T23:49:50.038Z",
  "devdoc": {
    "kind": "dev",
    "methods": {
      "borrowETH(uint256,uint256,uint16)": {
        "details": "borrow WETH, unwraps to ETH and send both the ETH and DebtTokens to msg.sender, via `approveDelegation` and onBehalf argument in `LendingPool.borrow`.",
        "params": {
          "amount": "the amount of ETH to borrow",
          "interesRateMode": "the interest rate mode",
          "referralCode": "integrators are assigned a referral code and can potentially receive rewards"
        }
      },
      "constructor": {
        "details": "Sets the WETH address and the LendingPoolAddressesProvider address. Infinite approves lending pool.",
        "params": {
          "pool": "Address of the LendingPool contract*",
          "weth": "Address of the Wrapped Ether contract"
        }
      },
      "depositETH(address,uint16)": {
        "details": "deposits WETH into the reserve, using native ETH. A corresponding amount of the overlying asset (aTokens) is minted.",
        "params": {
          "onBehalfOf": "address of the user who will receive the aTokens representing the deposit",
          "referralCode": "integrators are assigned a referral code and can potentially receive rewards.*"
        }
      },
      "emergencyEtherTransfer(address,uint256)": {
        "details": "transfer native Ether from the utility contract, for native Ether recovery in case of stuck Ether due selfdestructs or transfer ether to pre-computated contract address before deployment.",
        "params": {
          "amount": "amount to send",
          "to": "recipient of the transfer"
        }
      },
      "emergencyTokenTransfer(address,address,uint256)": {
        "details": "transfer ERC20 from the utility contract, for ERC20 recovery in case of stuck tokens due direct transfers to the contract address.",
        "params": {
          "amount": "amount to send",
          "to": "recipient of the transfer",
          "token": "token to transfer"
        }
      },
      "getAWETHAddress()": {
        "details": "Get aWETH address used by WETHGateway"
      },
      "getLendingPoolAddress()": {
        "details": "Get LendingPool address used by WETHGateway"
      },
      "getWETHAddress()": {
        "details": "Get WETH address used by WETHGateway"
      },
      "owner()": {
        "details": "Returns the address of the current owner."
      },
      "renounceOwnership()": {
        "details": "Leaves the contract without owner. It will not be possible to call `onlyOwner` functions anymore. Can only be called by the current owner. NOTE: Renouncing ownership will leave the contract without an owner, thereby removing any functionality that is only available to the owner."
      },
      "repayETH(uint256,uint256,address)": {
        "details": "repays a borrow on the WETH reserve, for the specified amount (or for the whole amount, if uint256(-1) is specified).",
        "params": {
          "amount": "the amount to repay, or uint256(-1) if the user wants to repay everything",
          "onBehalfOf": "the address for which msg.sender is repaying",
          "rateMode": "the rate mode to repay"
        }
      },
      "transferOwnership(address)": {
        "details": "Transfers ownership of the contract to a new account (`newOwner`). Can only be called by the current owner."
      },
      "withdrawETH(uint256,address)": {
        "details": "withdraws the WETH _reserves of msg.sender.",
        "params": {
          "amount": "amount of aWETH to withdraw and receive native ETH",
          "to": "address of the user who will receive native ETH"
        }
      }
    },
    "version": 1
  },
  "userdoc": {
    "kind": "user",
    "methods": {},
    "version": 1
  }
}